{"abi":[{"constant":true,"inputs":[],"name":"tradeId","outputs":[{"name":"","type":"uint256"}],"payable":false,"stateMutability":"view","type":"function"},{"constant":true,"inputs":[{"name":"","type":"uint256"}],"name":"trades","outputs":[{"name":"id","type":"uint256"},{"name":"creator","type":"address"},{"components":[{"name":"id","type":"uint256"},{"name":"creator","type":"address"},{"name":"name","type":"string"},{"name":"cost","type":"uint256"}],"name":"product","type":"tuple"},{"name":"complete","type":"bool"}],"payable":false,"stateMutability":"view","type":"function"},{"constant":true,"inputs":[],"name":"manager","outputs":[{"name":"","type":"address"}],"payable":false,"stateMutability":"view","type":"function"},{"constant":true,"inputs":[{"name":"","type":"uint256"}],"name":"products","outputs":[{"name":"id","type":"uint256"},{"name":"creator","type":"address"},{"name":"name","type":"string"},{"name":"cost","type":"uint256"}],"payable":false,"stateMutability":"view","type":"function"},{"constant":false,"inputs":[{"name":"productId","type":"uint256"}],"name":"buyProduct","outputs":[],"payable":true,"stateMutability":"payable","type":"function"},{"constant":true,"inputs":[],"name":"getProducts","outputs":[{"components":[{"name":"id","type":"uint256"},{"name":"creator","type":"address"},{"name":"name","type":"string"},{"name":"cost","type":"uint256"}],"name":"","type":"tuple[]"}],"payable":false,"stateMutability":"view","type":"function"},{"constant":true,"inputs":[],"name":"productId","outputs":[{"name":"","type":"uint256"}],"payable":false,"stateMutability":"view","type":"function"},{"constant":false,"inputs":[{"name":"tradeId","type":"uint256"}],"name":"verifyTrade","outputs":[],"payable":true,"stateMutability":"payable","type":"function"},{"constant":true,"inputs":[],"name":"getTrades","outputs":[{"components":[{"name":"id","type":"uint256"},{"name":"creator","type":"address"},{"components":[{"name":"id","type":"uint256"},{"name":"creator","type":"address"},{"name":"name","type":"string"},{"name":"cost","type":"uint256"}],"name":"product","type":"tuple"},{"name":"complete","type":"bool"}],"name":"","type":"tuple[]"}],"payable":false,"stateMutability":"view","type":"function"},{"constant":false,"inputs":[{"name":"name","type":"string"},{"name":"cost","type":"uint256"}],"name":"createProduct","outputs":[],"payable":false,"stateMutability":"nonpayable","type":"function"},{"inputs":[],"payable":true,"stateMutability":"payable","type":"constructor"}],"devdoc":{"methods":{}},"evm":{"assembly":"    /* \"TradeShift.sol\":59:2212  contract TradeShift {... */\n  mstore(0x40, 0x80)\n    /* \"TradeShift.sol\":613:623  msg.sender */\n  caller\n    /* \"TradeShift.sol\":603:610  manager */\n  0x4\n  0x0\n    /* \"TradeShift.sol\":603:623  manager = msg.sender */\n  0x100\n  exp\n  dup2\n  sload\n  dup2\n  0xffffffffffffffffffffffffffffffffffffffff\n  mul\n  not\n  and\n  swap1\n  dup4\n  0xffffffffffffffffffffffffffffffffffffffff\n  and\n  mul\n  or\n  swap1\n  sstore\n  pop\n    /* \"TradeShift.sol\":59:2212  contract TradeShift {... */\n  dataSize(sub_0)\n  dup1\n  dataOffset(sub_0)\n  0x0\n  codecopy\n  0x0\n  return\nstop\n\nsub_0: assembly {\n        /* \"TradeShift.sol\":59:2212  contract TradeShift {... */\n      mstore(0x40, 0x80)\n      jumpi(tag_1, lt(calldatasize, 0x4))\n      calldataload(0x0)\n      0x100000000000000000000000000000000000000000000000000000000\n      swap1\n      div\n      0xffffffff\n      and\n      dup1\n      0x2c5115b\n      eq\n      tag_2\n      jumpi\n      dup1\n      0x1e6c598e\n      eq\n      tag_3\n      jumpi\n      dup1\n      0x481c6a75\n      eq\n      tag_4\n      jumpi\n      dup1\n      0x7acc0b20\n      eq\n      tag_5\n      jumpi\n      dup1\n      0x8642269e\n      eq\n      tag_6\n      jumpi\n      dup1\n      0xc29b2f20\n      eq\n      tag_7\n      jumpi\n      dup1\n      0xc5ce3911\n      eq\n      tag_8\n      jumpi\n      dup1\n      0xd781d7c8\n      eq\n      tag_9\n      jumpi\n      dup1\n      0xe43372e9\n      eq\n      tag_10\n      jumpi\n      dup1\n      0xe9300c6c\n      eq\n      tag_11\n      jumpi\n    tag_1:\n      0x0\n      dup1\n      revert\n        /* \"TradeShift.sol\":416:435  uint public tradeId */\n    tag_2:\n      callvalue\n        /* \"--CODEGEN--\":8:17   */\n      dup1\n        /* \"--CODEGEN--\":5:7   */\n      iszero\n      tag_12\n      jumpi\n        /* \"--CODEGEN--\":30:31   */\n      0x0\n        /* \"--CODEGEN--\":27:28   */\n      dup1\n        /* \"--CODEGEN--\":20:32   */\n      revert\n        /* \"--CODEGEN--\":5:7   */\n    tag_12:\n        /* \"TradeShift.sol\":416:435  uint public tradeId */\n      pop\n      tag_13\n      jump(tag_14)\n    tag_13:\n      mload(0x40)\n      tag_15\n      swap2\n      swap1\n      jump(tag_16)\n    tag_15:\n      mload(0x40)\n      dup1\n      swap2\n      sub\n      swap1\n      return\n        /* \"TradeShift.sol\":361:382  Trade[] public trades */\n    tag_3:\n      callvalue\n        /* \"--CODEGEN--\":8:17   */\n      dup1\n        /* \"--CODEGEN--\":5:7   */\n      iszero\n      tag_17\n      jumpi\n        /* \"--CODEGEN--\":30:31   */\n      0x0\n        /* \"--CODEGEN--\":27:28   */\n      dup1\n        /* \"--CODEGEN--\":20:32   */\n      revert\n        /* \"--CODEGEN--\":5:7   */\n    tag_17:\n        /* \"TradeShift.sol\":361:382  Trade[] public trades */\n      pop\n      tag_18\n      0x4\n      dup1\n      calldatasize\n      sub\n      tag_19\n      swap2\n      swap1\n      dup2\n      add\n      swap1\n      jump(tag_20)\n    tag_19:\n      jump(tag_21)\n    tag_18:\n      mload(0x40)\n      tag_22\n      swap5\n      swap4\n      swap3\n      swap2\n      swap1\n      jump(tag_23)\n    tag_22:\n      mload(0x40)\n      dup1\n      swap2\n      sub\n      swap1\n      return\n        /* \"TradeShift.sol\":442:472  address payable public manager */\n    tag_4:\n      callvalue\n        /* \"--CODEGEN--\":8:17   */\n      dup1\n        /* \"--CODEGEN--\":5:7   */\n      iszero\n      tag_24\n      jumpi\n        /* \"--CODEGEN--\":30:31   */\n      0x0\n        /* \"--CODEGEN--\":27:28   */\n      dup1\n        /* \"--CODEGEN--\":20:32   */\n      revert\n        /* \"--CODEGEN--\":5:7   */\n    tag_24:\n        /* \"TradeShift.sol\":442:472  address payable public manager */\n      pop\n      tag_25\n      jump(tag_26)\n    tag_25:\n      mload(0x40)\n      tag_27\n      swap2\n      swap1\n      jump(tag_28)\n    tag_27:\n      mload(0x40)\n      dup1\n      swap2\n      sub\n      swap1\n      return\n        /* \"TradeShift.sol\":330:355  Product[] public products */\n    tag_5:\n      callvalue\n        /* \"--CODEGEN--\":8:17   */\n      dup1\n        /* \"--CODEGEN--\":5:7   */\n      iszero\n      tag_29\n      jumpi\n        /* \"--CODEGEN--\":30:31   */\n      0x0\n        /* \"--CODEGEN--\":27:28   */\n      dup1\n        /* \"--CODEGEN--\":20:32   */\n      revert\n        /* \"--CODEGEN--\":5:7   */\n    tag_29:\n        /* \"TradeShift.sol\":330:355  Product[] public products */\n      pop\n      tag_30\n      0x4\n      dup1\n      calldatasize\n      sub\n      tag_31\n      swap2\n      swap1\n      dup2\n      add\n      swap1\n      jump(tag_20)\n    tag_31:\n      jump(tag_32)\n    tag_30:\n      mload(0x40)\n      tag_33\n      swap5\n      swap4\n      swap3\n      swap2\n      swap1\n      jump(tag_34)\n    tag_33:\n      mload(0x40)\n      dup1\n      swap2\n      sub\n      swap1\n      return\n        /* \"TradeShift.sol\":1124:1748  function buyProduct(uint productId) public payable {... */\n    tag_6:\n      tag_35\n      0x4\n      dup1\n      calldatasize\n      sub\n      tag_36\n      swap2\n      swap1\n      dup2\n      add\n      swap1\n      jump(tag_20)\n    tag_36:\n      jump(tag_37)\n    tag_35:\n      stop\n        /* \"TradeShift.sol\":932:1025  function getProducts() public view returns(Product[] memory) {... */\n    tag_7:\n      callvalue\n        /* \"--CODEGEN--\":8:17   */\n      dup1\n        /* \"--CODEGEN--\":5:7   */\n      iszero\n      tag_38\n      jumpi\n        /* \"--CODEGEN--\":30:31   */\n      0x0\n        /* \"--CODEGEN--\":27:28   */\n      dup1\n        /* \"--CODEGEN--\":20:32   */\n      revert\n        /* \"--CODEGEN--\":5:7   */\n    tag_38:\n        /* \"TradeShift.sol\":932:1025  function getProducts() public view returns(Product[] memory) {... */\n      pop\n      tag_39\n      jump(tag_40)\n    tag_39:\n      mload(0x40)\n      tag_41\n      swap2\n      swap1\n      jump(tag_42)\n    tag_41:\n      mload(0x40)\n      dup1\n      swap2\n      sub\n      swap1\n      return\n        /* \"TradeShift.sol\":389:410  uint public productId */\n    tag_8:\n      callvalue\n        /* \"--CODEGEN--\":8:17   */\n      dup1\n        /* \"--CODEGEN--\":5:7   */\n      iszero\n      tag_43\n      jumpi\n        /* \"--CODEGEN--\":30:31   */\n      0x0\n        /* \"--CODEGEN--\":27:28   */\n      dup1\n        /* \"--CODEGEN--\":20:32   */\n      revert\n        /* \"--CODEGEN--\":5:7   */\n    tag_43:\n        /* \"TradeShift.sol\":389:410  uint public productId */\n      pop\n      tag_44\n      jump(tag_45)\n    tag_44:\n      mload(0x40)\n      tag_46\n      swap2\n      swap1\n      jump(tag_16)\n    tag_46:\n      mload(0x40)\n      dup1\n      swap2\n      sub\n      swap1\n      return\n        /* \"TradeShift.sol\":1754:2210  function verifyTrade(uint tradeId) public payable restricted {... */\n    tag_9:\n      tag_47\n      0x4\n      dup1\n      calldatasize\n      sub\n      tag_48\n      swap2\n      swap1\n      dup2\n      add\n      swap1\n      jump(tag_20)\n    tag_48:\n      jump(tag_49)\n    tag_47:\n      stop\n        /* \"TradeShift.sol\":1031:1118  function getTrades() public view returns(Trade[] memory) {... */\n    tag_10:\n      callvalue\n        /* \"--CODEGEN--\":8:17   */\n      dup1\n        /* \"--CODEGEN--\":5:7   */\n      iszero\n      tag_50\n      jumpi\n        /* \"--CODEGEN--\":30:31   */\n      0x0\n        /* \"--CODEGEN--\":27:28   */\n      dup1\n        /* \"--CODEGEN--\":20:32   */\n      revert\n        /* \"--CODEGEN--\":5:7   */\n    tag_50:\n        /* \"TradeShift.sol\":1031:1118  function getTrades() public view returns(Trade[] memory) {... */\n      pop\n      tag_51\n      jump(tag_52)\n    tag_51:\n      mload(0x40)\n      tag_53\n      swap2\n      swap1\n      jump(tag_54)\n    tag_53:\n      mload(0x40)\n      dup1\n      swap2\n      sub\n      swap1\n      return\n        /* \"TradeShift.sol\":636:926  function createProduct(string memory name, uint256 cost) public  {... */\n    tag_11:\n      callvalue\n        /* \"--CODEGEN--\":8:17   */\n      dup1\n        /* \"--CODEGEN--\":5:7   */\n      iszero\n      tag_55\n      jumpi\n        /* \"--CODEGEN--\":30:31   */\n      0x0\n        /* \"--CODEGEN--\":27:28   */\n      dup1\n        /* \"--CODEGEN--\":20:32   */\n      revert\n        /* \"--CODEGEN--\":5:7   */\n    tag_55:\n        /* \"TradeShift.sol\":636:926  function createProduct(string memory name, uint256 cost) public  {... */\n      pop\n      tag_56\n      0x4\n      dup1\n      calldatasize\n      sub\n      tag_57\n      swap2\n      swap1\n      dup2\n      add\n      swap1\n      jump(tag_58)\n    tag_57:\n      jump(tag_59)\n    tag_56:\n      stop\n        /* \"TradeShift.sol\":416:435  uint public tradeId */\n    tag_14:\n      sload(0x3)\n      dup2\n      jump\t// out\n        /* \"TradeShift.sol\":361:382  Trade[] public trades */\n    tag_21:\n      0x1\n      dup2\n      dup2\n      sload\n      dup2\n      lt\n      iszero\n      iszero\n      tag_60\n      jumpi\n      invalid\n    tag_60:\n      swap1\n      0x0\n      mstore\n      keccak256(0x0, 0x20)\n      swap1\n      0x7\n      mul\n      add\n      0x0\n      swap2\n      pop\n      swap1\n      pop\n      dup1\n      0x0\n      add\n      sload\n      swap1\n      dup1\n      0x1\n      add\n      0x0\n      swap1\n      sload\n      swap1\n      0x100\n      exp\n      swap1\n      div\n      0xffffffffffffffffffffffffffffffffffffffff\n      and\n      swap1\n      dup1\n      0x2\n      add\n      0x80\n      mload(0x40)\n      swap1\n      dup2\n      add\n      0x40\n      mstore\n      swap1\n      dup2\n      0x0\n      dup3\n      add\n      sload\n      dup2\n      mstore\n      0x20\n      add\n      0x1\n      dup3\n      add\n      0x0\n      swap1\n      sload\n      swap1\n      0x100\n      exp\n      swap1\n      div\n      0xffffffffffffffffffffffffffffffffffffffff\n      and\n      0xffffffffffffffffffffffffffffffffffffffff\n      and\n      0xffffffffffffffffffffffffffffffffffffffff\n      and\n      dup2\n      mstore\n      0x20\n      add\n      0x2\n      dup3\n      add\n      dup1\n      sload\n      0x1\n      dup2\n      0x1\n      and\n      iszero\n      0x100\n      mul\n      sub\n      and\n      0x2\n      swap1\n      div\n      dup1\n      0x1f\n      add\n      0x20\n      dup1\n      swap2\n      div\n      mul\n      0x20\n      add\n      mload(0x40)\n      swap1\n      dup2\n      add\n      0x40\n      mstore\n      dup1\n      swap3\n      swap2\n      swap1\n      dup2\n      dup2\n      mstore\n      0x20\n      add\n      dup3\n      dup1\n      sload\n      0x1\n      dup2\n      0x1\n      and\n      iszero\n      0x100\n      mul\n      sub\n      and\n      0x2\n      swap1\n      div\n      dup1\n      iszero\n      tag_62\n      jumpi\n      dup1\n      0x1f\n      lt\n      tag_63\n      jumpi\n      0x100\n      dup1\n      dup4\n      sload\n      div\n      mul\n      dup4\n      mstore\n      swap2\n      0x20\n      add\n      swap2\n      jump(tag_62)\n    tag_63:\n      dup3\n      add\n      swap2\n      swap1\n      0x0\n      mstore\n      keccak256(0x0, 0x20)\n      swap1\n    tag_64:\n      dup2\n      sload\n      dup2\n      mstore\n      swap1\n      0x1\n      add\n      swap1\n      0x20\n      add\n      dup1\n      dup4\n      gt\n      tag_64\n      jumpi\n      dup3\n      swap1\n      sub\n      0x1f\n      and\n      dup3\n      add\n      swap2\n    tag_62:\n      pop\n      pop\n      pop\n      pop\n      pop\n      dup2\n      mstore\n      0x20\n      add\n      0x3\n      dup3\n      add\n      sload\n      dup2\n      mstore\n      pop\n      pop\n      swap1\n      dup1\n      0x6\n      add\n      0x0\n      swap1\n      sload\n      swap1\n      0x100\n      exp\n      swap1\n      div\n      0xff\n      and\n      swap1\n      pop\n      dup5\n      jump\t// out\n        /* \"TradeShift.sol\":442:472  address payable public manager */\n    tag_26:\n      0x4\n      0x0\n      swap1\n      sload\n      swap1\n      0x100\n      exp\n      swap1\n      div\n      0xffffffffffffffffffffffffffffffffffffffff\n      and\n      dup2\n      jump\t// out\n        /* \"TradeShift.sol\":330:355  Product[] public products */\n    tag_32:\n      0x0\n      dup2\n      dup2\n      sload\n      dup2\n      lt\n      iszero\n      iszero\n      tag_65\n      jumpi\n      invalid\n    tag_65:\n      swap1\n      0x0\n      mstore\n      keccak256(0x0, 0x20)\n      swap1\n      0x4\n      mul\n      add\n      0x0\n      swap2\n      pop\n      swap1\n      pop\n      dup1\n      0x0\n      add\n      sload\n      swap1\n      dup1\n      0x1\n      add\n      0x0\n      swap1\n      sload\n      swap1\n      0x100\n      exp\n      swap1\n      div\n      0xffffffffffffffffffffffffffffffffffffffff\n      and\n      swap1\n      dup1\n      0x2\n      add\n      dup1\n      sload\n      0x1\n      dup2\n      0x1\n      and\n      iszero\n      0x100\n      mul\n      sub\n      and\n      0x2\n      swap1\n      div\n      dup1\n      0x1f\n      add\n      0x20\n      dup1\n      swap2\n      div\n      mul\n      0x20\n      add\n      mload(0x40)\n      swap1\n      dup2\n      add\n      0x40\n      mstore\n      dup1\n      swap3\n      swap2\n      swap1\n      dup2\n      dup2\n      mstore\n      0x20\n      add\n      dup3\n      dup1\n      sload\n      0x1\n      dup2\n      0x1\n      and\n      iszero\n      0x100\n      mul\n      sub\n      and\n      0x2\n      swap1\n      div\n      dup1\n      iszero\n      tag_67\n      jumpi\n      dup1\n      0x1f\n      lt\n      tag_68\n      jumpi\n      0x100\n      dup1\n      dup4\n      sload\n      div\n      mul\n      dup4\n      mstore\n      swap2\n      0x20\n      add\n      swap2\n      jump(tag_67)\n    tag_68:\n      dup3\n      add\n      swap2\n      swap1\n      0x0\n      mstore\n      keccak256(0x0, 0x20)\n      swap1\n    tag_69:\n      dup2\n      sload\n      dup2\n      mstore\n      swap1\n      0x1\n      add\n      swap1\n      0x20\n      add\n      dup1\n      dup4\n      gt\n      tag_69\n      jumpi\n      dup3\n      swap1\n      sub\n      0x1f\n      and\n      dup3\n      add\n      swap2\n    tag_67:\n      pop\n      pop\n      pop\n      pop\n      pop\n      swap1\n      dup1\n      0x3\n      add\n      sload\n      swap1\n      pop\n      dup5\n      jump\t// out\n        /* \"TradeShift.sol\":1124:1748  function buyProduct(uint productId) public payable {... */\n    tag_37:\n        /* \"TradeShift.sol\":1183:1193  uint index */\n      0x0\n        /* \"TradeShift.sol\":1214:1215  0 */\n      dup1\n        /* \"TradeShift.sol\":1206:1215  index = 0 */\n      swap1\n      pop\n        /* \"TradeShift.sol\":1201:1742  for (index = 0; index < products.length; index++) {... */\n    tag_71:\n        /* \"TradeShift.sol\":1225:1233  products */\n      0x0\n        /* \"TradeShift.sol\":1225:1240  products.length */\n      dup1\n      sload\n      swap1\n      pop\n        /* \"TradeShift.sol\":1217:1222  index */\n      dup2\n        /* \"TradeShift.sol\":1217:1240  index < products.length */\n      lt\n        /* \"TradeShift.sol\":1201:1742  for (index = 0; index < products.length; index++) {... */\n      iszero\n      tag_72\n      jumpi\n        /* \"TradeShift.sol\":1288:1297  productId */\n      dup2\n        /* \"TradeShift.sol\":1266:1274  products */\n      0x0\n        /* \"TradeShift.sol\":1275:1280  index */\n      dup3\n        /* \"TradeShift.sol\":1266:1281  products[index] */\n      dup2\n      sload\n      dup2\n      lt\n      iszero\n      iszero\n      tag_74\n      jumpi\n      invalid\n    tag_74:\n      swap1\n      0x0\n      mstore\n      keccak256(0x0, 0x20)\n      swap1\n      0x4\n      mul\n      add\n        /* \"TradeShift.sol\":1266:1284  products[index].id */\n      0x0\n      add\n      sload\n        /* \"TradeShift.sol\":1266:1297  products[index].id == productId */\n      eq\n        /* \"TradeShift.sol\":1262:1734  if (products[index].id == productId) {... */\n      iszero\n      tag_76\n      jumpi\n        /* \"TradeShift.sol\":1335:1343  products */\n      0x0\n        /* \"TradeShift.sol\":1344:1349  index */\n      dup2\n        /* \"TradeShift.sol\":1335:1350  products[index] */\n      dup2\n      sload\n      dup2\n      lt\n      iszero\n      iszero\n      tag_77\n      jumpi\n      invalid\n    tag_77:\n      swap1\n      0x0\n      mstore\n      keccak256(0x0, 0x20)\n      swap1\n      0x4\n      mul\n      add\n        /* \"TradeShift.sol\":1335:1355  products[index].cost */\n      0x3\n      add\n      sload\n        /* \"TradeShift.sol\":1322:1331  msg.value */\n      callvalue\n        /* \"TradeShift.sol\":1322:1355  msg.value == products[index].cost */\n      eq\n        /* \"TradeShift.sol\":1314:1356  require(msg.value == products[index].cost) */\n      iszero\n      iszero\n      tag_79\n      jumpi\n      0x0\n      dup1\n      revert\n    tag_79:\n        /* \"TradeShift.sol\":1371:1392  Trade memory newTrade */\n      tag_80\n      jump\t// in(tag_81)\n    tag_80:\n        /* \"TradeShift.sol\":1395:1557  Trade({... */\n      0x80\n      mload(0x40)\n      swap1\n      dup2\n      add\n      0x40\n      mstore\n      dup1\n        /* \"TradeShift.sol\":1423:1430  tradeId */\n      sload(0x3)\n        /* \"TradeShift.sol\":1395:1557  Trade({... */\n      dup2\n      mstore\n      0x20\n      add\n        /* \"TradeShift.sol\":1457:1467  msg.sender */\n      caller\n        /* \"TradeShift.sol\":1395:1557  Trade({... */\n      0xffffffffffffffffffffffffffffffffffffffff\n      and\n      dup2\n      mstore\n      0x20\n      add\n        /* \"TradeShift.sol\":1494:1502  products */\n      0x0\n        /* \"TradeShift.sol\":1503:1508  index */\n      dup5\n        /* \"TradeShift.sol\":1494:1509  products[index] */\n      dup2\n      sload\n      dup2\n      lt\n      iszero\n      iszero\n      tag_82\n      jumpi\n      invalid\n    tag_82:\n      swap1\n      0x0\n      mstore\n      keccak256(0x0, 0x20)\n      swap1\n      0x4\n      mul\n      add\n        /* \"TradeShift.sol\":1395:1557  Trade({... */\n      0x80\n      mload(0x40)\n      swap1\n      dup2\n      add\n      0x40\n      mstore\n      swap1\n      dup2\n      0x0\n      dup3\n      add\n      sload\n      dup2\n      mstore\n      0x20\n      add\n      0x1\n      dup3\n      add\n      0x0\n      swap1\n      sload\n      swap1\n      0x100\n      exp\n      swap1\n      div\n      0xffffffffffffffffffffffffffffffffffffffff\n      and\n      0xffffffffffffffffffffffffffffffffffffffff\n      and\n      0xffffffffffffffffffffffffffffffffffffffff\n      and\n      dup2\n      mstore\n      0x20\n      add\n      0x2\n      dup3\n      add\n      dup1\n      sload\n      0x1\n      dup2\n      0x1\n      and\n      iszero\n      0x100\n      mul\n      sub\n      and\n      0x2\n      swap1\n      div\n      dup1\n      0x1f\n      add\n      0x20\n      dup1\n      swap2\n      div\n      mul\n      0x20\n      add\n      mload(0x40)\n      swap1\n      dup2\n      add\n      0x40\n      mstore\n      dup1\n      swap3\n      swap2\n      swap1\n      dup2\n      dup2\n      mstore\n      0x20\n      add\n      dup3\n      dup1\n      sload\n      0x1\n      dup2\n      0x1\n      and\n      iszero\n      0x100\n      mul\n      sub\n      and\n      0x2\n      swap1\n      div\n      dup1\n      iszero\n      tag_84\n      jumpi\n      dup1\n      0x1f\n      lt\n      tag_85\n      jumpi\n      0x100\n      dup1\n      dup4\n      sload\n      div\n      mul\n      dup4\n      mstore\n      swap2\n      0x20\n      add\n      swap2\n      jump(tag_84)\n    tag_85:\n      dup3\n      add\n      swap2\n      swap1\n      0x0\n      mstore\n      keccak256(0x0, 0x20)\n      swap1\n    tag_86:\n      dup2\n      sload\n      dup2\n      mstore\n      swap1\n      0x1\n      add\n      swap1\n      0x20\n      add\n      dup1\n      dup4\n      gt\n      tag_86\n      jumpi\n      dup3\n      swap1\n      sub\n      0x1f\n      and\n      dup3\n      add\n      swap2\n    tag_84:\n      pop\n      pop\n      pop\n      pop\n      pop\n      dup2\n      mstore\n      0x20\n      add\n      0x3\n      dup3\n      add\n      sload\n      dup2\n      mstore\n      pop\n      pop\n      dup2\n      mstore\n      0x20\n      add\n        /* \"TradeShift.sol\":1537:1542  false */\n      0x0\n        /* \"TradeShift.sol\":1395:1557  Trade({... */\n      iszero\n      iszero\n      dup2\n      mstore\n      pop\n        /* \"TradeShift.sol\":1371:1557  Trade memory newTrade = Trade({... */\n      swap1\n      pop\n        /* \"TradeShift.sol\":1571:1577  trades */\n      0x1\n        /* \"TradeShift.sol\":1583:1591  newTrade */\n      dup2\n        /* \"TradeShift.sol\":1571:1592  trades.push(newTrade) */\n      swap1\n      dup1\n        /* \"--CODEGEN--\":39:40   */\n      0x1\n        /* \"--CODEGEN--\":33:36   */\n      dup2\n        /* \"--CODEGEN--\":27:37   */\n      sload\n        /* \"--CODEGEN--\":23:41   */\n      add\n        /* \"--CODEGEN--\":57:67   */\n      dup1\n        /* \"--CODEGEN--\":52:55   */\n      dup3\n        /* \"--CODEGEN--\":45:68   */\n      sstore\n        /* \"--CODEGEN--\":79:89   */\n      dup1\n        /* \"--CODEGEN--\":72:89   */\n      swap2\n      pop\n        /* \"--CODEGEN--\":0:93   */\n      pop\n        /* \"TradeShift.sol\":1571:1592  trades.push(newTrade) */\n      swap1\n      0x1\n      dup3\n      sub\n      swap1\n      0x0\n      mstore\n      keccak256(0x0, 0x20)\n      swap1\n      0x7\n      mul\n      add\n      0x0\n      swap1\n      swap2\n      swap3\n      swap1\n      swap2\n      swap1\n      swap2\n      pop\n      0x0\n      dup3\n      add\n      mload\n      dup2\n      0x0\n      add\n      sstore\n      0x20\n      dup3\n      add\n      mload\n      dup2\n      0x1\n      add\n      exp(0x100, 0x0)\n      dup2\n      sload\n      dup2\n      0xffffffffffffffffffffffffffffffffffffffff\n      mul\n      not\n      and\n      swap1\n      dup4\n      0xffffffffffffffffffffffffffffffffffffffff\n      and\n      mul\n      or\n      swap1\n      sstore\n      pop\n      0x40\n      dup3\n      add\n      mload\n      dup2\n      0x2\n      add\n      0x0\n      dup3\n      add\n      mload\n      dup2\n      0x0\n      add\n      sstore\n      0x20\n      dup3\n      add\n      mload\n      dup2\n      0x1\n      add\n      exp(0x100, 0x0)\n      dup2\n      sload\n      dup2\n      0xffffffffffffffffffffffffffffffffffffffff\n      mul\n      not\n      and\n      swap1\n      dup4\n      0xffffffffffffffffffffffffffffffffffffffff\n      and\n      mul\n      or\n      swap1\n      sstore\n      pop\n      0x40\n      dup3\n      add\n      mload\n      dup2\n      0x2\n      add\n      swap1\n      dup1\n      mload\n      swap1\n      0x20\n      add\n      swap1\n      tag_88\n      swap3\n      swap2\n      swap1\n      jump\t// in(tag_89)\n    tag_88:\n      pop\n      0x60\n      dup3\n      add\n      mload\n      dup2\n      0x3\n      add\n      sstore\n      pop\n      pop\n      0x60\n      dup3\n      add\n      mload\n      dup2\n      0x6\n      add\n      exp(0x100, 0x0)\n      dup2\n      sload\n      dup2\n      0xff\n      mul\n      not\n      and\n      swap1\n      dup4\n      iszero\n      iszero\n      mul\n      or\n      swap1\n      sstore\n      pop\n      pop\n      pop\n      pop\n        /* \"TradeShift.sol\":1606:1613  tradeId */\n      0x3\n      0x0\n        /* \"TradeShift.sol\":1606:1615  tradeId++ */\n      dup2\n      sload\n      dup1\n      swap3\n      swap2\n      swap1\n      0x1\n      add\n      swap2\n      swap1\n      pop\n      sstore\n      pop\n        /* \"TradeShift.sol\":1630:1638  products */\n      0x0\n        /* \"TradeShift.sol\":1639:1644  index */\n      dup3\n        /* \"TradeShift.sol\":1630:1645  products[index] */\n      dup2\n      sload\n      dup2\n      lt\n      iszero\n      iszero\n      tag_90\n      jumpi\n      invalid\n    tag_90:\n      swap1\n      0x0\n      mstore\n      keccak256(0x0, 0x20)\n      swap1\n      0x4\n      mul\n      add\n        /* \"TradeShift.sol\":1630:1653  products[index].creator */\n      0x1\n      add\n      0x0\n      swap1\n      sload\n      swap1\n      0x100\n      exp\n      swap1\n      div\n      0xffffffffffffffffffffffffffffffffffffffff\n      and\n        /* \"TradeShift.sol\":1630:1662  products[index].creator.transfer */\n      0xffffffffffffffffffffffffffffffffffffffff\n      and\n        /* \"TradeShift.sol\":1630:1675  products[index].creator.transfer(msg.value/5) */\n      0x8fc\n        /* \"TradeShift.sol\":1673:1674  5 */\n      0x5\n        /* \"TradeShift.sol\":1663:1672  msg.value */\n      callvalue\n        /* \"TradeShift.sol\":1663:1674  msg.value/5 */\n      dup2\n      iszero\n      iszero\n      tag_92\n      jumpi\n      invalid\n    tag_92:\n      div\n        /* \"TradeShift.sol\":1630:1675  products[index].creator.transfer(msg.value/5) */\n      swap1\n      dup2\n      iszero\n      mul\n      swap1\n      mload(0x40)\n      0x0\n      mload(0x40)\n      dup1\n      dup4\n      sub\n      dup2\n      dup6\n      dup9\n      dup9\n      call\n      swap4\n      pop\n      pop\n      pop\n      pop\n      iszero\n        /* \"--CODEGEN--\":8:17   */\n      dup1\n        /* \"--CODEGEN--\":5:7   */\n      iszero\n      tag_93\n      jumpi\n        /* \"--CODEGEN--\":45:61   */\n      returndatasize\n        /* \"--CODEGEN--\":42:43   */\n      0x0\n        /* \"--CODEGEN--\":39:40   */\n      dup1\n        /* \"--CODEGEN--\":24:62   */\n      returndatacopy\n        /* \"--CODEGEN--\":77:93   */\n      returndatasize\n        /* \"--CODEGEN--\":74:75   */\n      0x0\n        /* \"--CODEGEN--\":67:94   */\n      revert\n        /* \"--CODEGEN--\":5:7   */\n    tag_93:\n        /* \"TradeShift.sol\":1630:1675  products[index].creator.transfer(msg.value/5) */\n      pop\n        /* \"TradeShift.sol\":1689:1696  manager */\n      0x4\n      0x0\n      swap1\n      sload\n      swap1\n      0x100\n      exp\n      swap1\n      div\n      0xffffffffffffffffffffffffffffffffffffffff\n      and\n        /* \"TradeShift.sol\":1689:1705  manager.transfer */\n      0xffffffffffffffffffffffffffffffffffffffff\n      and\n        /* \"TradeShift.sol\":1689:1722  manager.transfer((msg.value*4)/5) */\n      0x8fc\n        /* \"TradeShift.sol\":1720:1721  5 */\n      0x5\n        /* \"TradeShift.sol\":1717:1718  4 */\n      0x4\n        /* \"TradeShift.sol\":1707:1716  msg.value */\n      callvalue\n        /* \"TradeShift.sol\":1707:1718  msg.value*4 */\n      mul\n        /* \"TradeShift.sol\":1706:1721  (msg.value*4)/5 */\n      dup2\n      iszero\n      iszero\n      tag_94\n      jumpi\n      invalid\n    tag_94:\n      div\n        /* \"TradeShift.sol\":1689:1722  manager.transfer((msg.value*4)/5) */\n      swap1\n      dup2\n      iszero\n      mul\n      swap1\n      mload(0x40)\n      0x0\n      mload(0x40)\n      dup1\n      dup4\n      sub\n      dup2\n      dup6\n      dup9\n      dup9\n      call\n      swap4\n      pop\n      pop\n      pop\n      pop\n      iszero\n        /* \"--CODEGEN--\":8:17   */\n      dup1\n        /* \"--CODEGEN--\":5:7   */\n      iszero\n      tag_95\n      jumpi\n        /* \"--CODEGEN--\":45:61   */\n      returndatasize\n        /* \"--CODEGEN--\":42:43   */\n      0x0\n        /* \"--CODEGEN--\":39:40   */\n      dup1\n        /* \"--CODEGEN--\":24:62   */\n      returndatacopy\n        /* \"--CODEGEN--\":77:93   */\n      returndatasize\n        /* \"--CODEGEN--\":74:75   */\n      0x0\n        /* \"--CODEGEN--\":67:94   */\n      revert\n        /* \"--CODEGEN--\":5:7   */\n    tag_95:\n        /* \"TradeShift.sol\":1689:1722  manager.transfer((msg.value*4)/5) */\n      pop\n        /* \"TradeShift.sol\":1262:1734  if (products[index].id == productId) {... */\n      pop\n    tag_76:\n        /* \"TradeShift.sol\":1242:1249  index++ */\n      dup1\n      dup1\n      0x1\n      add\n      swap2\n      pop\n      pop\n        /* \"TradeShift.sol\":1201:1742  for (index = 0; index < products.length; index++) {... */\n      jump(tag_71)\n    tag_72:\n        /* \"TradeShift.sol\":1124:1748  function buyProduct(uint productId) public payable {... */\n      pop\n      pop\n      jump\t// out\n        /* \"TradeShift.sol\":932:1025  function getProducts() public view returns(Product[] memory) {... */\n    tag_40:\n        /* \"TradeShift.sol\":975:991  Product[] memory */\n      0x60\n        /* \"TradeShift.sol\":1010:1018  products */\n      0x0\n        /* \"TradeShift.sol\":1003:1018  return products */\n      dup1\n      sload\n      dup1\n      0x20\n      mul\n      0x20\n      add\n      mload(0x40)\n      swap1\n      dup2\n      add\n      0x40\n      mstore\n      dup1\n      swap3\n      swap2\n      swap1\n      dup2\n      dup2\n      mstore\n      0x20\n      add\n      0x0\n      swap1\n    tag_97:\n      dup3\n      dup3\n      lt\n      iszero\n      tag_98\n      jumpi\n      dup4\n      dup3\n      swap1\n      0x0\n      mstore\n      keccak256(0x0, 0x20)\n      swap1\n      0x4\n      mul\n      add\n      0x80\n      mload(0x40)\n      swap1\n      dup2\n      add\n      0x40\n      mstore\n      swap1\n      dup2\n      0x0\n      dup3\n      add\n      sload\n      dup2\n      mstore\n      0x20\n      add\n      0x1\n      dup3\n      add\n      0x0\n      swap1\n      sload\n      swap1\n      0x100\n      exp\n      swap1\n      div\n      0xffffffffffffffffffffffffffffffffffffffff\n      and\n      0xffffffffffffffffffffffffffffffffffffffff\n      and\n      0xffffffffffffffffffffffffffffffffffffffff\n      and\n      dup2\n      mstore\n      0x20\n      add\n      0x2\n      dup3\n      add\n      dup1\n      sload\n      0x1\n      dup2\n      0x1\n      and\n      iszero\n      0x100\n      mul\n      sub\n      and\n      0x2\n      swap1\n      div\n      dup1\n      0x1f\n      add\n      0x20\n      dup1\n      swap2\n      div\n      mul\n      0x20\n      add\n      mload(0x40)\n      swap1\n      dup2\n      add\n      0x40\n      mstore\n      dup1\n      swap3\n      swap2\n      swap1\n      dup2\n      dup2\n      mstore\n      0x20\n      add\n      dup3\n      dup1\n      sload\n      0x1\n      dup2\n      0x1\n      and\n      iszero\n      0x100\n      mul\n      sub\n      and\n      0x2\n      swap1\n      div\n      dup1\n      iszero\n      tag_100\n      jumpi\n      dup1\n      0x1f\n      lt\n      tag_101\n      jumpi\n      0x100\n      dup1\n      dup4\n      sload\n      div\n      mul\n      dup4\n      mstore\n      swap2\n      0x20\n      add\n      swap2\n      jump(tag_100)\n    tag_101:\n      dup3\n      add\n      swap2\n      swap1\n      0x0\n      mstore\n      keccak256(0x0, 0x20)\n      swap1\n    tag_102:\n      dup2\n      sload\n      dup2\n      mstore\n      swap1\n      0x1\n      add\n      swap1\n      0x20\n      add\n      dup1\n      dup4\n      gt\n      tag_102\n      jumpi\n      dup3\n      swap1\n      sub\n      0x1f\n      and\n      dup3\n      add\n      swap2\n    tag_100:\n      pop\n      pop\n      pop\n      pop\n      pop\n      dup2\n      mstore\n      0x20\n      add\n      0x3\n      dup3\n      add\n      sload\n      dup2\n      mstore\n      pop\n      pop\n      dup2\n      mstore\n      0x20\n      add\n      swap1\n      0x1\n      add\n      swap1\n      jump(tag_97)\n    tag_98:\n      pop\n      pop\n      pop\n      pop\n      swap1\n      pop\n        /* \"TradeShift.sol\":932:1025  function getProducts() public view returns(Product[] memory) {... */\n      swap1\n      jump\t// out\n        /* \"TradeShift.sol\":389:410  uint public productId */\n    tag_45:\n      sload(0x2)\n      dup2\n      jump\t// out\n        /* \"TradeShift.sol\":1754:2210  function verifyTrade(uint tradeId) public payable restricted {... */\n    tag_49:\n        /* \"TradeShift.sol\":533:540  manager */\n      0x4\n      0x0\n      swap1\n      sload\n      swap1\n      0x100\n      exp\n      swap1\n      div\n      0xffffffffffffffffffffffffffffffffffffffff\n      and\n        /* \"TradeShift.sol\":519:540  msg.sender == manager */\n      0xffffffffffffffffffffffffffffffffffffffff\n      and\n        /* \"TradeShift.sol\":519:529  msg.sender */\n      caller\n        /* \"TradeShift.sol\":519:540  msg.sender == manager */\n      0xffffffffffffffffffffffffffffffffffffffff\n      and\n      eq\n        /* \"TradeShift.sol\":511:541  require(msg.sender == manager) */\n      iszero\n      iszero\n      tag_104\n      jumpi\n      0x0\n      dup1\n      revert\n    tag_104:\n        /* \"TradeShift.sol\":1825:1835  uint index */\n      0x0\n        /* \"TradeShift.sol\":1858:1859  0 */\n      dup1\n        /* \"TradeShift.sol\":1850:1859  index = 0 */\n      swap1\n      pop\n        /* \"TradeShift.sol\":1845:2204  for (index = 0; index < trades.length; index++) {... */\n    tag_106:\n        /* \"TradeShift.sol\":1869:1875  trades */\n      0x1\n        /* \"TradeShift.sol\":1869:1882  trades.length */\n      dup1\n      sload\n      swap1\n      pop\n        /* \"TradeShift.sol\":1861:1866  index */\n      dup2\n        /* \"TradeShift.sol\":1861:1882  index < trades.length */\n      lt\n        /* \"TradeShift.sol\":1845:2204  for (index = 0; index < trades.length; index++) {... */\n      iszero\n      tag_107\n      jumpi\n        /* \"TradeShift.sol\":1931:1938  tradeId */\n      dup2\n        /* \"TradeShift.sol\":1911:1917  trades */\n      0x1\n        /* \"TradeShift.sol\":1918:1923  index */\n      dup3\n        /* \"TradeShift.sol\":1911:1924  trades[index] */\n      dup2\n      sload\n      dup2\n      lt\n      iszero\n      iszero\n      tag_109\n      jumpi\n      invalid\n    tag_109:\n      swap1\n      0x0\n      mstore\n      keccak256(0x0, 0x20)\n      swap1\n      0x7\n      mul\n      add\n        /* \"TradeShift.sol\":1911:1927  trades[index].id */\n      0x0\n      add\n      sload\n        /* \"TradeShift.sol\":1911:1938  trades[index].id == tradeId */\n      eq\n        /* \"TradeShift.sol\":1907:2193  if (trades[index].id == tradeId) {... */\n      iszero\n      tag_111\n      jumpi\n        /* \"TradeShift.sol\":1967:1973  trades */\n      0x1\n        /* \"TradeShift.sol\":1974:1979  index */\n      dup2\n        /* \"TradeShift.sol\":1967:1980  trades[index] */\n      dup2\n      sload\n      dup2\n      lt\n      iszero\n      iszero\n      tag_112\n      jumpi\n      invalid\n    tag_112:\n      swap1\n      0x0\n      mstore\n      keccak256(0x0, 0x20)\n      swap1\n      0x7\n      mul\n      add\n        /* \"TradeShift.sol\":1967:1989  trades[index].complete */\n      0x6\n      add\n      0x0\n      swap1\n      sload\n      swap1\n      0x100\n      exp\n      swap1\n      div\n      0xff\n      and\n        /* \"TradeShift.sol\":1966:1989  !trades[index].complete */\n      iszero\n        /* \"TradeShift.sol\":1958:1990  require(!trades[index].complete) */\n      iszero\n      iszero\n      tag_114\n      jumpi\n      0x0\n      dup1\n      revert\n    tag_114:\n        /* \"TradeShift.sol\":2061:2062  5 */\n      0x5\n        /* \"TradeShift.sol\":2058:2059  4 */\n      0x4\n        /* \"TradeShift.sol\":2031:2037  trades */\n      0x1\n        /* \"TradeShift.sol\":2038:2043  index */\n      dup4\n        /* \"TradeShift.sol\":2031:2044  trades[index] */\n      dup2\n      sload\n      dup2\n      lt\n      iszero\n      iszero\n      tag_115\n      jumpi\n      invalid\n    tag_115:\n      swap1\n      0x0\n      mstore\n      keccak256(0x0, 0x20)\n      swap1\n      0x7\n      mul\n      add\n        /* \"TradeShift.sol\":2031:2052  trades[index].product */\n      0x2\n      add\n        /* \"TradeShift.sol\":2031:2057  trades[index].product.cost */\n      0x3\n      add\n      sload\n        /* \"TradeShift.sol\":2031:2059  trades[index].product.cost*4 */\n      mul\n        /* \"TradeShift.sol\":2030:2062  (trades[index].product.cost*4)/5 */\n      dup2\n      iszero\n      iszero\n      tag_117\n      jumpi\n      invalid\n    tag_117:\n      div\n        /* \"TradeShift.sol\":2016:2025  msg.value */\n      callvalue\n        /* \"TradeShift.sol\":2016:2063  msg.value <= ((trades[index].product.cost*4)/5) */\n      gt\n      iszero\n        /* \"TradeShift.sol\":2008:2064  require(msg.value <= ((trades[index].product.cost*4)/5)) */\n      iszero\n      iszero\n      tag_118\n      jumpi\n      0x0\n      dup1\n      revert\n    tag_118:\n        /* \"TradeShift.sol\":2082:2088  trades */\n      0x1\n        /* \"TradeShift.sol\":2089:2094  index */\n      dup2\n        /* \"TradeShift.sol\":2082:2095  trades[index] */\n      dup2\n      sload\n      dup2\n      lt\n      iszero\n      iszero\n      tag_119\n      jumpi\n      invalid\n    tag_119:\n      swap1\n      0x0\n      mstore\n      keccak256(0x0, 0x20)\n      swap1\n      0x7\n      mul\n      add\n        /* \"TradeShift.sol\":2082:2103  trades[index].product */\n      0x2\n      add\n        /* \"TradeShift.sol\":2082:2111  trades[index].product.creator */\n      0x1\n      add\n      0x0\n      swap1\n      sload\n      swap1\n      0x100\n      exp\n      swap1\n      div\n      0xffffffffffffffffffffffffffffffffffffffff\n      and\n        /* \"TradeShift.sol\":2082:2120  trades[index].product.creator.transfer */\n      0xffffffffffffffffffffffffffffffffffffffff\n      and\n        /* \"TradeShift.sol\":2082:2131  trades[index].product.creator.transfer(msg.value) */\n      0x8fc\n        /* \"TradeShift.sol\":2121:2130  msg.value */\n      callvalue\n        /* \"TradeShift.sol\":2082:2131  trades[index].product.creator.transfer(msg.value) */\n      swap1\n      dup2\n      iszero\n      mul\n      swap1\n      mload(0x40)\n      0x0\n      mload(0x40)\n      dup1\n      dup4\n      sub\n      dup2\n      dup6\n      dup9\n      dup9\n      call\n      swap4\n      pop\n      pop\n      pop\n      pop\n      iszero\n        /* \"--CODEGEN--\":8:17   */\n      dup1\n        /* \"--CODEGEN--\":5:7   */\n      iszero\n      tag_121\n      jumpi\n        /* \"--CODEGEN--\":45:61   */\n      returndatasize\n        /* \"--CODEGEN--\":42:43   */\n      0x0\n        /* \"--CODEGEN--\":39:40   */\n      dup1\n        /* \"--CODEGEN--\":24:62   */\n      returndatacopy\n        /* \"--CODEGEN--\":77:93   */\n      returndatasize\n        /* \"--CODEGEN--\":74:75   */\n      0x0\n        /* \"--CODEGEN--\":67:94   */\n      revert\n        /* \"--CODEGEN--\":5:7   */\n    tag_121:\n        /* \"TradeShift.sol\":2082:2131  trades[index].product.creator.transfer(msg.value) */\n      pop\n        /* \"TradeShift.sol\":2174:2178  true */\n      0x1\n        /* \"TradeShift.sol\":2149:2155  trades */\n      dup1\n        /* \"TradeShift.sol\":2156:2161  index */\n      dup3\n        /* \"TradeShift.sol\":2149:2162  trades[index] */\n      dup2\n      sload\n      dup2\n      lt\n      iszero\n      iszero\n      tag_122\n      jumpi\n      invalid\n    tag_122:\n      swap1\n      0x0\n      mstore\n      keccak256(0x0, 0x20)\n      swap1\n      0x7\n      mul\n      add\n        /* \"TradeShift.sol\":2149:2171  trades[index].complete */\n      0x6\n      add\n      0x0\n        /* \"TradeShift.sol\":2149:2178  trades[index].complete = true */\n      0x100\n      exp\n      dup2\n      sload\n      dup2\n      0xff\n      mul\n      not\n      and\n      swap1\n      dup4\n      iszero\n      iszero\n      mul\n      or\n      swap1\n      sstore\n      pop\n        /* \"TradeShift.sol\":1907:2193  if (trades[index].id == tradeId) {... */\n    tag_111:\n        /* \"TradeShift.sol\":1884:1891  index++ */\n      dup1\n      dup1\n      0x1\n      add\n      swap2\n      pop\n      pop\n        /* \"TradeShift.sol\":1845:2204  for (index = 0; index < trades.length; index++) {... */\n      jump(tag_106)\n    tag_107:\n        /* \"TradeShift.sol\":551:552  _ */\n      pop\n        /* \"TradeShift.sol\":1754:2210  function verifyTrade(uint tradeId) public payable restricted {... */\n      pop\n      jump\t// out\n        /* \"TradeShift.sol\":1031:1118  function getTrades() public view returns(Trade[] memory) {... */\n    tag_52:\n        /* \"TradeShift.sol\":1072:1086  Trade[] memory */\n      0x60\n        /* \"TradeShift.sol\":1105:1111  trades */\n      0x1\n        /* \"TradeShift.sol\":1098:1111  return trades */\n      dup1\n      sload\n      dup1\n      0x20\n      mul\n      0x20\n      add\n      mload(0x40)\n      swap1\n      dup2\n      add\n      0x40\n      mstore\n      dup1\n      swap3\n      swap2\n      swap1\n      dup2\n      dup2\n      mstore\n      0x20\n      add\n      0x0\n      swap1\n    tag_125:\n      dup3\n      dup3\n      lt\n      iszero\n      tag_126\n      jumpi\n      dup4\n      dup3\n      swap1\n      0x0\n      mstore\n      keccak256(0x0, 0x20)\n      swap1\n      0x7\n      mul\n      add\n      0x80\n      mload(0x40)\n      swap1\n      dup2\n      add\n      0x40\n      mstore\n      swap1\n      dup2\n      0x0\n      dup3\n      add\n      sload\n      dup2\n      mstore\n      0x20\n      add\n      0x1\n      dup3\n      add\n      0x0\n      swap1\n      sload\n      swap1\n      0x100\n      exp\n      swap1\n      div\n      0xffffffffffffffffffffffffffffffffffffffff\n      and\n      0xffffffffffffffffffffffffffffffffffffffff\n      and\n      0xffffffffffffffffffffffffffffffffffffffff\n      and\n      dup2\n      mstore\n      0x20\n      add\n      0x2\n      dup3\n      add\n      0x80\n      mload(0x40)\n      swap1\n      dup2\n      add\n      0x40\n      mstore\n      swap1\n      dup2\n      0x0\n      dup3\n      add\n      sload\n      dup2\n      mstore\n      0x20\n      add\n      0x1\n      dup3\n      add\n      0x0\n      swap1\n      sload\n      swap1\n      0x100\n      exp\n      swap1\n      div\n      0xffffffffffffffffffffffffffffffffffffffff\n      and\n      0xffffffffffffffffffffffffffffffffffffffff\n      and\n      0xffffffffffffffffffffffffffffffffffffffff\n      and\n      dup2\n      mstore\n      0x20\n      add\n      0x2\n      dup3\n      add\n      dup1\n      sload\n      0x1\n      dup2\n      0x1\n      and\n      iszero\n      0x100\n      mul\n      sub\n      and\n      0x2\n      swap1\n      div\n      dup1\n      0x1f\n      add\n      0x20\n      dup1\n      swap2\n      div\n      mul\n      0x20\n      add\n      mload(0x40)\n      swap1\n      dup2\n      add\n      0x40\n      mstore\n      dup1\n      swap3\n      swap2\n      swap1\n      dup2\n      dup2\n      mstore\n      0x20\n      add\n      dup3\n      dup1\n      sload\n      0x1\n      dup2\n      0x1\n      and\n      iszero\n      0x100\n      mul\n      sub\n      and\n      0x2\n      swap1\n      div\n      dup1\n      iszero\n      tag_128\n      jumpi\n      dup1\n      0x1f\n      lt\n      tag_129\n      jumpi\n      0x100\n      dup1\n      dup4\n      sload\n      div\n      mul\n      dup4\n      mstore\n      swap2\n      0x20\n      add\n      swap2\n      jump(tag_128)\n    tag_129:\n      dup3\n      add\n      swap2\n      swap1\n      0x0\n      mstore\n      keccak256(0x0, 0x20)\n      swap1\n    tag_130:\n      dup2\n      sload\n      dup2\n      mstore\n      swap1\n      0x1\n      add\n      swap1\n      0x20\n      add\n      dup1\n      dup4\n      gt\n      tag_130\n      jumpi\n      dup3\n      swap1\n      sub\n      0x1f\n      and\n      dup3\n      add\n      swap2\n    tag_128:\n      pop\n      pop\n      pop\n      pop\n      pop\n      dup2\n      mstore\n      0x20\n      add\n      0x3\n      dup3\n      add\n      sload\n      dup2\n      mstore\n      pop\n      pop\n      dup2\n      mstore\n      0x20\n      add\n      0x6\n      dup3\n      add\n      0x0\n      swap1\n      sload\n      swap1\n      0x100\n      exp\n      swap1\n      div\n      0xff\n      and\n      iszero\n      iszero\n      iszero\n      iszero\n      dup2\n      mstore\n      pop\n      pop\n      dup2\n      mstore\n      0x20\n      add\n      swap1\n      0x1\n      add\n      swap1\n      jump(tag_125)\n    tag_126:\n      pop\n      pop\n      pop\n      pop\n      swap1\n      pop\n        /* \"TradeShift.sol\":1031:1118  function getTrades() public view returns(Trade[] memory) {... */\n      swap1\n      jump\t// out\n        /* \"TradeShift.sol\":636:926  function createProduct(string memory name, uint256 cost) public  {... */\n    tag_59:\n        /* \"TradeShift.sol\":711:736  Product memory newProduct */\n      tag_132\n      jump\t// in(tag_133)\n    tag_132:\n        /* \"TradeShift.sol\":739:862  Product({... */\n      0x80\n      mload(0x40)\n      swap1\n      dup2\n      add\n      0x40\n      mstore\n      dup1\n        /* \"TradeShift.sol\":764:773  productId */\n      sload(0x2)\n        /* \"TradeShift.sol\":739:862  Product({... */\n      dup2\n      mstore\n      0x20\n      add\n        /* \"TradeShift.sol\":795:805  msg.sender */\n      caller\n        /* \"TradeShift.sol\":739:862  Product({... */\n      0xffffffffffffffffffffffffffffffffffffffff\n      and\n      dup2\n      mstore\n      0x20\n      add\n        /* \"TradeShift.sol\":824:828  name */\n      dup5\n        /* \"TradeShift.sol\":739:862  Product({... */\n      dup2\n      mstore\n      0x20\n      add\n        /* \"TradeShift.sol\":847:851  cost */\n      dup4\n        /* \"TradeShift.sol\":739:862  Product({... */\n      dup2\n      mstore\n      pop\n        /* \"TradeShift.sol\":711:862  Product memory newProduct = Product({... */\n      swap1\n      pop\n        /* \"TradeShift.sol\":873:882  productId */\n      0x2\n      0x0\n        /* \"TradeShift.sol\":873:884  productId++ */\n      dup2\n      sload\n      dup1\n      swap3\n      swap2\n      swap1\n      0x1\n      add\n      swap2\n      swap1\n      pop\n      sstore\n      pop\n        /* \"TradeShift.sol\":894:902  products */\n      0x0\n        /* \"TradeShift.sol\":908:918  newProduct */\n      dup2\n        /* \"TradeShift.sol\":894:919  products.push(newProduct) */\n      swap1\n      dup1\n        /* \"--CODEGEN--\":39:40   */\n      0x1\n        /* \"--CODEGEN--\":33:36   */\n      dup2\n        /* \"--CODEGEN--\":27:37   */\n      sload\n        /* \"--CODEGEN--\":23:41   */\n      add\n        /* \"--CODEGEN--\":57:67   */\n      dup1\n        /* \"--CODEGEN--\":52:55   */\n      dup3\n        /* \"--CODEGEN--\":45:68   */\n      sstore\n        /* \"--CODEGEN--\":79:89   */\n      dup1\n        /* \"--CODEGEN--\":72:89   */\n      swap2\n      pop\n        /* \"--CODEGEN--\":0:93   */\n      pop\n        /* \"TradeShift.sol\":894:919  products.push(newProduct) */\n      swap1\n      0x1\n      dup3\n      sub\n      swap1\n      0x0\n      mstore\n      keccak256(0x0, 0x20)\n      swap1\n      0x4\n      mul\n      add\n      0x0\n      swap1\n      swap2\n      swap3\n      swap1\n      swap2\n      swap1\n      swap2\n      pop\n      0x0\n      dup3\n      add\n      mload\n      dup2\n      0x0\n      add\n      sstore\n      0x20\n      dup3\n      add\n      mload\n      dup2\n      0x1\n      add\n      exp(0x100, 0x0)\n      dup2\n      sload\n      dup2\n      0xffffffffffffffffffffffffffffffffffffffff\n      mul\n      not\n      and\n      swap1\n      dup4\n      0xffffffffffffffffffffffffffffffffffffffff\n      and\n      mul\n      or\n      swap1\n      sstore\n      pop\n      0x40\n      dup3\n      add\n      mload\n      dup2\n      0x2\n      add\n      swap1\n      dup1\n      mload\n      swap1\n      0x20\n      add\n      swap1\n      tag_135\n      swap3\n      swap2\n      swap1\n      jump\t// in(tag_89)\n    tag_135:\n      pop\n      0x60\n      dup3\n      add\n      mload\n      dup2\n      0x3\n      add\n      sstore\n      pop\n      pop\n      pop\n        /* \"TradeShift.sol\":636:926  function createProduct(string memory name, uint256 cost) public  {... */\n      pop\n      pop\n      pop\n      jump\t// out\n        /* \"TradeShift.sol\":59:2212  contract TradeShift {... */\n    tag_81:\n      0xe0\n      mload(0x40)\n      swap1\n      dup2\n      add\n      0x40\n      mstore\n      dup1\n      0x0\n      dup2\n      mstore\n      0x20\n      add\n      and(0xffffffffffffffffffffffffffffffffffffffff, 0x0)\n      dup2\n      mstore\n      0x20\n      add\n      tag_136\n      jump\t// in(tag_137)\n    tag_136:\n      dup2\n      mstore\n      0x20\n      add\n      iszero(iszero(0x0))\n      dup2\n      mstore\n      pop\n      swap1\n      jump\t// out\n    tag_89:\n      dup3\n      dup1\n      sload\n      0x1\n      dup2\n      0x1\n      and\n      iszero\n      0x100\n      mul\n      sub\n      and\n      0x2\n      swap1\n      div\n      swap1\n      0x0\n      mstore\n      keccak256(0x0, 0x20)\n      swap1\n      0x1f\n      add\n      0x20\n      swap1\n      div\n      dup2\n      add\n      swap3\n      dup3\n      0x1f\n      lt\n      tag_139\n      jumpi\n      dup1\n      mload\n      not(0xff)\n      and\n      dup4\n      dup1\n      add\n      or\n      dup6\n      sstore\n      jump(tag_138)\n    tag_139:\n      dup3\n      dup1\n      add\n      0x1\n      add\n      dup6\n      sstore\n      dup3\n      iszero\n      tag_138\n      jumpi\n      swap2\n      dup3\n      add\n    tag_140:\n      dup3\n      dup2\n      gt\n      iszero\n      tag_141\n      jumpi\n      dup3\n      mload\n      dup3\n      sstore\n      swap2\n      0x20\n      add\n      swap2\n      swap1\n      0x1\n      add\n      swap1\n      jump(tag_140)\n    tag_141:\n    tag_138:\n      pop\n      swap1\n      pop\n      tag_142\n      swap2\n      swap1\n      jump\t// in(tag_143)\n    tag_142:\n      pop\n      swap1\n      jump\t// out\n    tag_133:\n      0x80\n      mload(0x40)\n      swap1\n      dup2\n      add\n      0x40\n      mstore\n      dup1\n      0x0\n      dup2\n      mstore\n      0x20\n      add\n      and(0xffffffffffffffffffffffffffffffffffffffff, 0x0)\n      dup2\n      mstore\n      0x20\n      add\n      0x60\n      dup2\n      mstore\n      0x20\n      add\n      0x0\n      dup2\n      mstore\n      pop\n      swap1\n      jump\t// out\n    tag_137:\n      0x80\n      mload(0x40)\n      swap1\n      dup2\n      add\n      0x40\n      mstore\n      dup1\n      0x0\n      dup2\n      mstore\n      0x20\n      add\n      and(0xffffffffffffffffffffffffffffffffffffffff, 0x0)\n      dup2\n      mstore\n      0x20\n      add\n      0x60\n      dup2\n      mstore\n      0x20\n      add\n      0x0\n      dup2\n      mstore\n      pop\n      swap1\n      jump\t// out\n    tag_143:\n      tag_144\n      swap2\n      swap1\n    tag_145:\n      dup1\n      dup3\n      gt\n      iszero\n      tag_146\n      jumpi\n      0x0\n      dup2\n      0x0\n      swap1\n      sstore\n      pop\n      0x1\n      add\n      jump(tag_145)\n    tag_146:\n      pop\n      swap1\n      jump\n    tag_144:\n      swap1\n      jump\t// out\n        /* \"--CODEGEN--\":6:448   */\n    tag_148:\n      0x0\n        /* \"--CODEGEN--\":108:111   */\n      dup3\n        /* \"--CODEGEN--\":101:105   */\n      0x1f\n        /* \"--CODEGEN--\":93:99   */\n      dup4\n        /* \"--CODEGEN--\":89:106   */\n      add\n        /* \"--CODEGEN--\":85:112   */\n      slt\n        /* \"--CODEGEN--\":78:113   */\n      iszero\n        /* \"--CODEGEN--\":75:77   */\n      iszero\n      tag_149\n      jumpi\n        /* \"--CODEGEN--\":126:127   */\n      0x0\n        /* \"--CODEGEN--\":123:124   */\n      dup1\n        /* \"--CODEGEN--\":116:128   */\n      revert\n        /* \"--CODEGEN--\":75:77   */\n    tag_149:\n        /* \"--CODEGEN--\":163:169   */\n      dup2\n        /* \"--CODEGEN--\":150:170   */\n      calldataload\n        /* \"--CODEGEN--\":185:250   */\n      tag_150\n        /* \"--CODEGEN--\":200:249   */\n      tag_151\n        /* \"--CODEGEN--\":242:248   */\n      dup3\n        /* \"--CODEGEN--\":200:249   */\n      jump(tag_152)\n    tag_151:\n        /* \"--CODEGEN--\":185:250   */\n      jump(tag_153)\n    tag_150:\n        /* \"--CODEGEN--\":176:250   */\n      swap2\n      pop\n        /* \"--CODEGEN--\":270:276   */\n      dup1\n        /* \"--CODEGEN--\":263:268   */\n      dup3\n        /* \"--CODEGEN--\":256:277   */\n      mstore\n        /* \"--CODEGEN--\":306:310   */\n      0x20\n        /* \"--CODEGEN--\":298:304   */\n      dup4\n        /* \"--CODEGEN--\":294:311   */\n      add\n        /* \"--CODEGEN--\":339:343   */\n      0x20\n        /* \"--CODEGEN--\":332:337   */\n      dup4\n        /* \"--CODEGEN--\":328:344   */\n      add\n        /* \"--CODEGEN--\":374:377   */\n      dup6\n        /* \"--CODEGEN--\":365:371   */\n      dup4\n        /* \"--CODEGEN--\":360:363   */\n      dup4\n        /* \"--CODEGEN--\":356:372   */\n      add\n        /* \"--CODEGEN--\":353:378   */\n      gt\n        /* \"--CODEGEN--\":350:352   */\n      iszero\n      tag_154\n      jumpi\n        /* \"--CODEGEN--\":391:392   */\n      0x0\n        /* \"--CODEGEN--\":388:389   */\n      dup1\n        /* \"--CODEGEN--\":381:393   */\n      revert\n        /* \"--CODEGEN--\":350:352   */\n    tag_154:\n        /* \"--CODEGEN--\":401:442   */\n      tag_155\n        /* \"--CODEGEN--\":435:441   */\n      dup4\n        /* \"--CODEGEN--\":430:433   */\n      dup3\n        /* \"--CODEGEN--\":425:428   */\n      dup5\n        /* \"--CODEGEN--\":401:442   */\n      jump(tag_156)\n    tag_155:\n        /* \"--CODEGEN--\":68:448   */\n      pop\n      pop\n      pop\n      swap3\n      swap2\n      pop\n      pop\n      jump\n        /* \"--CODEGEN--\":456:574   */\n    tag_158:\n      0x0\n        /* \"--CODEGEN--\":523:569   */\n      tag_159\n        /* \"--CODEGEN--\":561:567   */\n      dup3\n        /* \"--CODEGEN--\":548:568   */\n      calldataload\n        /* \"--CODEGEN--\":523:569   */\n      jump(tag_160)\n    tag_159:\n        /* \"--CODEGEN--\":514:569   */\n      swap1\n      pop\n        /* \"--CODEGEN--\":508:574   */\n      swap3\n      swap2\n      pop\n      pop\n      jump\n        /* \"--CODEGEN--\":581:1053   */\n    tag_58:\n      0x0\n      dup1\n        /* \"--CODEGEN--\":712:714   */\n      0x40\n        /* \"--CODEGEN--\":700:709   */\n      dup4\n        /* \"--CODEGEN--\":691:698   */\n      dup6\n        /* \"--CODEGEN--\":687:710   */\n      sub\n        /* \"--CODEGEN--\":683:715   */\n      slt\n        /* \"--CODEGEN--\":680:682   */\n      iszero\n      tag_162\n      jumpi\n        /* \"--CODEGEN--\":728:729   */\n      0x0\n        /* \"--CODEGEN--\":725:726   */\n      dup1\n        /* \"--CODEGEN--\":718:730   */\n      revert\n        /* \"--CODEGEN--\":680:682   */\n    tag_162:\n        /* \"--CODEGEN--\":791:792   */\n      0x0\n        /* \"--CODEGEN--\":780:789   */\n      dup4\n        /* \"--CODEGEN--\":776:793   */\n      add\n        /* \"--CODEGEN--\":763:794   */\n      calldataload\n        /* \"--CODEGEN--\":814:832   */\n      0xffffffffffffffff\n        /* \"--CODEGEN--\":806:812   */\n      dup2\n        /* \"--CODEGEN--\":803:833   */\n      gt\n        /* \"--CODEGEN--\":800:802   */\n      iszero\n      tag_163\n      jumpi\n        /* \"--CODEGEN--\":846:847   */\n      0x0\n        /* \"--CODEGEN--\":843:844   */\n      dup1\n        /* \"--CODEGEN--\":836:848   */\n      revert\n        /* \"--CODEGEN--\":800:802   */\n    tag_163:\n        /* \"--CODEGEN--\":866:929   */\n      tag_164\n        /* \"--CODEGEN--\":921:928   */\n      dup6\n        /* \"--CODEGEN--\":912:918   */\n      dup3\n        /* \"--CODEGEN--\":901:910   */\n      dup7\n        /* \"--CODEGEN--\":897:919   */\n      add\n        /* \"--CODEGEN--\":866:929   */\n      jump(tag_148)\n    tag_164:\n        /* \"--CODEGEN--\":856:929   */\n      swap3\n      pop\n        /* \"--CODEGEN--\":742:935   */\n      pop\n        /* \"--CODEGEN--\":966:968   */\n      0x20\n        /* \"--CODEGEN--\":984:1037   */\n      tag_165\n        /* \"--CODEGEN--\":1029:1036   */\n      dup6\n        /* \"--CODEGEN--\":1020:1026   */\n      dup3\n        /* \"--CODEGEN--\":1009:1018   */\n      dup7\n        /* \"--CODEGEN--\":1005:1027   */\n      add\n        /* \"--CODEGEN--\":984:1037   */\n      jump(tag_158)\n    tag_165:\n        /* \"--CODEGEN--\":974:1037   */\n      swap2\n      pop\n        /* \"--CODEGEN--\":945:1043   */\n      pop\n        /* \"--CODEGEN--\":674:1053   */\n      swap3\n      pop\n      swap3\n      swap1\n      pop\n      jump\n        /* \"--CODEGEN--\":1060:1301   */\n    tag_20:\n      0x0\n        /* \"--CODEGEN--\":1164:1166   */\n      0x20\n        /* \"--CODEGEN--\":1152:1161   */\n      dup3\n        /* \"--CODEGEN--\":1143:1150   */\n      dup5\n        /* \"--CODEGEN--\":1139:1162   */\n      sub\n        /* \"--CODEGEN--\":1135:1167   */\n      slt\n        /* \"--CODEGEN--\":1132:1134   */\n      iszero\n      tag_167\n      jumpi\n        /* \"--CODEGEN--\":1180:1181   */\n      0x0\n        /* \"--CODEGEN--\":1177:1178   */\n      dup1\n        /* \"--CODEGEN--\":1170:1182   */\n      revert\n        /* \"--CODEGEN--\":1132:1134   */\n    tag_167:\n        /* \"--CODEGEN--\":1215:1216   */\n      0x0\n        /* \"--CODEGEN--\":1232:1285   */\n      tag_168\n        /* \"--CODEGEN--\":1277:1284   */\n      dup5\n        /* \"--CODEGEN--\":1268:1274   */\n      dup3\n        /* \"--CODEGEN--\":1257:1266   */\n      dup6\n        /* \"--CODEGEN--\":1253:1275   */\n      add\n        /* \"--CODEGEN--\":1232:1285   */\n      jump(tag_158)\n    tag_168:\n        /* \"--CODEGEN--\":1222:1285   */\n      swap2\n      pop\n        /* \"--CODEGEN--\":1194:1291   */\n      pop\n        /* \"--CODEGEN--\":1126:1301   */\n      swap3\n      swap2\n      pop\n      pop\n      jump\n        /* \"--CODEGEN--\":1308:1442   */\n    tag_170:\n        /* \"--CODEGEN--\":1397:1436   */\n      tag_171\n        /* \"--CODEGEN--\":1430:1435   */\n      dup2\n        /* \"--CODEGEN--\":1397:1436   */\n      jump(tag_172)\n    tag_171:\n        /* \"--CODEGEN--\":1392:1395   */\n      dup3\n        /* \"--CODEGEN--\":1385:1437   */\n      mstore\n        /* \"--CODEGEN--\":1379:1442   */\n      pop\n      pop\n      jump\n        /* \"--CODEGEN--\":1516:2380   */\n    tag_174:\n      0x0\n        /* \"--CODEGEN--\":1689:1762   */\n      tag_175\n        /* \"--CODEGEN--\":1756:1761   */\n      dup3\n        /* \"--CODEGEN--\":1689:1762   */\n      jump(tag_176)\n    tag_175:\n        /* \"--CODEGEN--\":1780:1786   */\n      dup1\n        /* \"--CODEGEN--\":1775:1778   */\n      dup5\n        /* \"--CODEGEN--\":1768:1787   */\n      mstore\n        /* \"--CODEGEN--\":1804:1808   */\n      0x20\n        /* \"--CODEGEN--\":1799:1802   */\n      dup5\n        /* \"--CODEGEN--\":1795:1809   */\n      add\n        /* \"--CODEGEN--\":1788:1809   */\n      swap4\n      pop\n        /* \"--CODEGEN--\":1852:1855   */\n      dup4\n        /* \"--CODEGEN--\":1894:1898   */\n      0x20\n        /* \"--CODEGEN--\":1886:1892   */\n      dup3\n        /* \"--CODEGEN--\":1882:1899   */\n      mul\n        /* \"--CODEGEN--\":1877:1880   */\n      dup6\n        /* \"--CODEGEN--\":1873:1900   */\n      add\n        /* \"--CODEGEN--\":1920:1995   */\n      tag_177\n        /* \"--CODEGEN--\":1989:1994   */\n      dup6\n        /* \"--CODEGEN--\":1920:1995   */\n      jump(tag_178)\n    tag_177:\n        /* \"--CODEGEN--\":2016:2017   */\n      0x0\n        /* \"--CODEGEN--\":2001:2341   */\n    tag_179:\n        /* \"--CODEGEN--\":2026:2032   */\n      dup5\n        /* \"--CODEGEN--\":2023:2024   */\n      dup2\n        /* \"--CODEGEN--\":2020:2033   */\n      lt\n        /* \"--CODEGEN--\":2001:2341   */\n      iszero\n      tag_180\n      jumpi\n        /* \"--CODEGEN--\":2088:2097   */\n      dup4\n        /* \"--CODEGEN--\":2082:2086   */\n      dup4\n        /* \"--CODEGEN--\":2078:2098   */\n      sub\n        /* \"--CODEGEN--\":2073:2076   */\n      dup9\n        /* \"--CODEGEN--\":2066:2099   */\n      mstore\n        /* \"--CODEGEN--\":2114:2210   */\n      tag_182\n        /* \"--CODEGEN--\":2205:2209   */\n      dup4\n        /* \"--CODEGEN--\":2196:2202   */\n      dup4\n        /* \"--CODEGEN--\":2190:2203   */\n      mload\n        /* \"--CODEGEN--\":2114:2210   */\n      jump(tag_183)\n    tag_182:\n        /* \"--CODEGEN--\":2106:2210   */\n      swap3\n      pop\n        /* \"--CODEGEN--\":2227:2306   */\n      tag_184\n        /* \"--CODEGEN--\":2299:2305   */\n      dup3\n        /* \"--CODEGEN--\":2227:2306   */\n      jump(tag_185)\n    tag_184:\n        /* \"--CODEGEN--\":2217:2306   */\n      swap2\n      pop\n        /* \"--CODEGEN--\":2329:2333   */\n      0x20\n        /* \"--CODEGEN--\":2324:2327   */\n      dup9\n        /* \"--CODEGEN--\":2320:2334   */\n      add\n        /* \"--CODEGEN--\":2313:2334   */\n      swap8\n      pop\n        /* \"--CODEGEN--\":2048:2049   */\n      0x1\n        /* \"--CODEGEN--\":2045:2046   */\n      dup2\n        /* \"--CODEGEN--\":2041:2050   */\n      add\n        /* \"--CODEGEN--\":2036:2050   */\n      swap1\n      pop\n        /* \"--CODEGEN--\":2001:2341   */\n      jump(tag_179)\n    tag_180:\n        /* \"--CODEGEN--\":2005:2019   */\n      pop\n        /* \"--CODEGEN--\":2354:2358   */\n      dup2\n        /* \"--CODEGEN--\":2347:2358   */\n      swap7\n      pop\n        /* \"--CODEGEN--\":2371:2374   */\n      dup7\n        /* \"--CODEGEN--\":2364:2374   */\n      swap5\n      pop\n        /* \"--CODEGEN--\":1668:2380   */\n      pop\n      pop\n      pop\n      pop\n      swap3\n      swap2\n      pop\n      pop\n      jump\n        /* \"--CODEGEN--\":2451:3301   */\n    tag_187:\n      0x0\n        /* \"--CODEGEN--\":2620:2691   */\n      tag_188\n        /* \"--CODEGEN--\":2685:2690   */\n      dup3\n        /* \"--CODEGEN--\":2620:2691   */\n      jump(tag_189)\n    tag_188:\n        /* \"--CODEGEN--\":2709:2715   */\n      dup1\n        /* \"--CODEGEN--\":2704:2707   */\n      dup5\n        /* \"--CODEGEN--\":2697:2716   */\n      mstore\n        /* \"--CODEGEN--\":2733:2737   */\n      0x20\n        /* \"--CODEGEN--\":2728:2731   */\n      dup5\n        /* \"--CODEGEN--\":2724:2738   */\n      add\n        /* \"--CODEGEN--\":2717:2738   */\n      swap4\n      pop\n        /* \"--CODEGEN--\":2781:2784   */\n      dup4\n        /* \"--CODEGEN--\":2823:2827   */\n      0x20\n        /* \"--CODEGEN--\":2815:2821   */\n      dup3\n        /* \"--CODEGEN--\":2811:2828   */\n      mul\n        /* \"--CODEGEN--\":2806:2809   */\n      dup6\n        /* \"--CODEGEN--\":2802:2829   */\n      add\n        /* \"--CODEGEN--\":2849:2922   */\n      tag_190\n        /* \"--CODEGEN--\":2916:2921   */\n      dup6\n        /* \"--CODEGEN--\":2849:2922   */\n      jump(tag_191)\n    tag_190:\n        /* \"--CODEGEN--\":2943:2944   */\n      0x0\n        /* \"--CODEGEN--\":2928:3262   */\n    tag_192:\n        /* \"--CODEGEN--\":2953:2959   */\n      dup5\n        /* \"--CODEGEN--\":2950:2951   */\n      dup2\n        /* \"--CODEGEN--\":2947:2960   */\n      lt\n        /* \"--CODEGEN--\":2928:3262   */\n      iszero\n      tag_193\n      jumpi\n        /* \"--CODEGEN--\":3015:3024   */\n      dup4\n        /* \"--CODEGEN--\":3009:3013   */\n      dup4\n        /* \"--CODEGEN--\":3005:3025   */\n      sub\n        /* \"--CODEGEN--\":3000:3003   */\n      dup9\n        /* \"--CODEGEN--\":2993:3026   */\n      mstore\n        /* \"--CODEGEN--\":3041:3133   */\n      tag_195\n        /* \"--CODEGEN--\":3128:3132   */\n      dup4\n        /* \"--CODEGEN--\":3119:3125   */\n      dup4\n        /* \"--CODEGEN--\":3113:3126   */\n      mload\n        /* \"--CODEGEN--\":3041:3133   */\n      jump(tag_196)\n    tag_195:\n        /* \"--CODEGEN--\":3033:3133   */\n      swap3\n      pop\n        /* \"--CODEGEN--\":3150:3227   */\n      tag_197\n        /* \"--CODEGEN--\":3220:3226   */\n      dup3\n        /* \"--CODEGEN--\":3150:3227   */\n      jump(tag_198)\n    tag_197:\n        /* \"--CODEGEN--\":3140:3227   */\n      swap2\n      pop\n        /* \"--CODEGEN--\":3250:3254   */\n      0x20\n        /* \"--CODEGEN--\":3245:3248   */\n      dup9\n        /* \"--CODEGEN--\":3241:3255   */\n      add\n        /* \"--CODEGEN--\":3234:3255   */\n      swap8\n      pop\n        /* \"--CODEGEN--\":2975:2976   */\n      0x1\n        /* \"--CODEGEN--\":2972:2973   */\n      dup2\n        /* \"--CODEGEN--\":2968:2977   */\n      add\n        /* \"--CODEGEN--\":2963:2977   */\n      swap1\n      pop\n        /* \"--CODEGEN--\":2928:3262   */\n      jump(tag_192)\n    tag_193:\n        /* \"--CODEGEN--\":2932:2946   */\n      pop\n        /* \"--CODEGEN--\":3275:3279   */\n      dup2\n        /* \"--CODEGEN--\":3268:3279   */\n      swap7\n      pop\n        /* \"--CODEGEN--\":3292:3295   */\n      dup7\n        /* \"--CODEGEN--\":3285:3295   */\n      swap5\n      pop\n        /* \"--CODEGEN--\":2599:3301   */\n      pop\n      pop\n      pop\n      pop\n      swap3\n      swap2\n      pop\n      pop\n      jump\n        /* \"--CODEGEN--\":3309:3410   */\n    tag_200:\n        /* \"--CODEGEN--\":3376:3404   */\n      tag_201\n        /* \"--CODEGEN--\":3398:3403   */\n      dup2\n        /* \"--CODEGEN--\":3376:3404   */\n      jump(tag_202)\n    tag_201:\n        /* \"--CODEGEN--\":3371:3374   */\n      dup3\n        /* \"--CODEGEN--\":3364:3405   */\n      mstore\n        /* \"--CODEGEN--\":3358:3410   */\n      pop\n      pop\n      jump\n        /* \"--CODEGEN--\":3417:3709   */\n    tag_204:\n      0x0\n        /* \"--CODEGEN--\":3515:3550   */\n      tag_205\n        /* \"--CODEGEN--\":3544:3549   */\n      dup3\n        /* \"--CODEGEN--\":3515:3550   */\n      jump(tag_206)\n    tag_205:\n        /* \"--CODEGEN--\":3567:3573   */\n      dup1\n        /* \"--CODEGEN--\":3562:3565   */\n      dup5\n        /* \"--CODEGEN--\":3555:3574   */\n      mstore\n        /* \"--CODEGEN--\":3579:3642   */\n      tag_207\n        /* \"--CODEGEN--\":3635:3641   */\n      dup2\n        /* \"--CODEGEN--\":3628:3632   */\n      0x20\n        /* \"--CODEGEN--\":3623:3626   */\n      dup7\n        /* \"--CODEGEN--\":3619:3633   */\n      add\n        /* \"--CODEGEN--\":3612:3616   */\n      0x20\n        /* \"--CODEGEN--\":3605:3610   */\n      dup7\n        /* \"--CODEGEN--\":3601:3617   */\n      add\n        /* \"--CODEGEN--\":3579:3642   */\n      jump(tag_208)\n    tag_207:\n        /* \"--CODEGEN--\":3674:3703   */\n      tag_209\n        /* \"--CODEGEN--\":3696:3702   */\n      dup2\n        /* \"--CODEGEN--\":3674:3703   */\n      jump(tag_210)\n    tag_209:\n        /* \"--CODEGEN--\":3667:3671   */\n      0x20\n        /* \"--CODEGEN--\":3662:3665   */\n      dup6\n        /* \"--CODEGEN--\":3658:3672   */\n      add\n        /* \"--CODEGEN--\":3654:3704   */\n      add\n        /* \"--CODEGEN--\":3647:3704   */\n      swap2\n      pop\n        /* \"--CODEGEN--\":3495:3709   */\n      pop\n      swap3\n      swap2\n      pop\n      pop\n      jump\n        /* \"--CODEGEN--\":3777:4692   */\n    tag_183:\n      0x0\n        /* \"--CODEGEN--\":3910:3914   */\n      0x80\n        /* \"--CODEGEN--\":3905:3908   */\n      dup4\n        /* \"--CODEGEN--\":3901:3915   */\n      add\n        /* \"--CODEGEN--\":3994:3997   */\n      0x0\n        /* \"--CODEGEN--\":3987:3992   */\n      dup4\n        /* \"--CODEGEN--\":3983:3998   */\n      add\n        /* \"--CODEGEN--\":3977:3999   */\n      mload\n        /* \"--CODEGEN--\":4011:4072   */\n      tag_212\n        /* \"--CODEGEN--\":4067:4070   */\n      0x0\n        /* \"--CODEGEN--\":4062:4065   */\n      dup7\n        /* \"--CODEGEN--\":4058:4071   */\n      add\n        /* \"--CODEGEN--\":4045:4056   */\n      dup3\n        /* \"--CODEGEN--\":4011:4072   */\n      jump(tag_213)\n    tag_212:\n        /* \"--CODEGEN--\":3930:4084   */\n      pop\n        /* \"--CODEGEN--\":4163:4167   */\n      0x20\n        /* \"--CODEGEN--\":4156:4161   */\n      dup4\n        /* \"--CODEGEN--\":4152:4168   */\n      add\n        /* \"--CODEGEN--\":4146:4169   */\n      mload\n        /* \"--CODEGEN--\":4181:4259   */\n      tag_214\n        /* \"--CODEGEN--\":4253:4257   */\n      0x20\n        /* \"--CODEGEN--\":4248:4251   */\n      dup7\n        /* \"--CODEGEN--\":4244:4258   */\n      add\n        /* \"--CODEGEN--\":4231:4242   */\n      dup3\n        /* \"--CODEGEN--\":4181:4259   */\n      jump(tag_170)\n    tag_214:\n        /* \"--CODEGEN--\":4094:4271   */\n      pop\n        /* \"--CODEGEN--\":4347:4351   */\n      0x40\n        /* \"--CODEGEN--\":4340:4345   */\n      dup4\n        /* \"--CODEGEN--\":4336:4352   */\n      add\n        /* \"--CODEGEN--\":4330:4353   */\n      mload\n        /* \"--CODEGEN--\":4398:4401   */\n      dup5\n        /* \"--CODEGEN--\":4392:4396   */\n      dup3\n        /* \"--CODEGEN--\":4388:4402   */\n      sub\n        /* \"--CODEGEN--\":4381:4385   */\n      0x40\n        /* \"--CODEGEN--\":4376:4379   */\n      dup7\n        /* \"--CODEGEN--\":4372:4386   */\n      add\n        /* \"--CODEGEN--\":4365:4403   */\n      mstore\n        /* \"--CODEGEN--\":4418:4486   */\n      tag_215\n        /* \"--CODEGEN--\":4481:4485   */\n      dup3\n        /* \"--CODEGEN--\":4468:4479   */\n      dup3\n        /* \"--CODEGEN--\":4418:4486   */\n      jump(tag_204)\n    tag_215:\n        /* \"--CODEGEN--\":4410:4486   */\n      swap2\n      pop\n        /* \"--CODEGEN--\":4281:4498   */\n      pop\n        /* \"--CODEGEN--\":4574:4578   */\n      0x60\n        /* \"--CODEGEN--\":4567:4572   */\n      dup4\n        /* \"--CODEGEN--\":4563:4579   */\n      add\n        /* \"--CODEGEN--\":4557:4580   */\n      mload\n        /* \"--CODEGEN--\":4592:4654   */\n      tag_216\n        /* \"--CODEGEN--\":4648:4652   */\n      0x60\n        /* \"--CODEGEN--\":4643:4646   */\n      dup7\n        /* \"--CODEGEN--\":4639:4653   */\n      add\n        /* \"--CODEGEN--\":4626:4637   */\n      dup3\n        /* \"--CODEGEN--\":4592:4654   */\n      jump(tag_213)\n    tag_216:\n        /* \"--CODEGEN--\":4508:4666   */\n      pop\n        /* \"--CODEGEN--\":4683:4687   */\n      dup1\n        /* \"--CODEGEN--\":4676:4687   */\n      swap2\n      pop\n        /* \"--CODEGEN--\":3883:4692   */\n      pop\n      swap3\n      swap2\n      pop\n      pop\n      jump\n        /* \"--CODEGEN--\":4756:5694   */\n    tag_196:\n      0x0\n        /* \"--CODEGEN--\":4885:4889   */\n      0x80\n        /* \"--CODEGEN--\":4880:4883   */\n      dup4\n        /* \"--CODEGEN--\":4876:4890   */\n      add\n        /* \"--CODEGEN--\":4969:4972   */\n      0x0\n        /* \"--CODEGEN--\":4962:4967   */\n      dup4\n        /* \"--CODEGEN--\":4958:4973   */\n      add\n        /* \"--CODEGEN--\":4952:4974   */\n      mload\n        /* \"--CODEGEN--\":4986:5047   */\n      tag_218\n        /* \"--CODEGEN--\":5042:5045   */\n      0x0\n        /* \"--CODEGEN--\":5037:5040   */\n      dup7\n        /* \"--CODEGEN--\":5033:5046   */\n      add\n        /* \"--CODEGEN--\":5020:5031   */\n      dup3\n        /* \"--CODEGEN--\":4986:5047   */\n      jump(tag_213)\n    tag_218:\n        /* \"--CODEGEN--\":4905:5059   */\n      pop\n        /* \"--CODEGEN--\":5138:5142   */\n      0x20\n        /* \"--CODEGEN--\":5131:5136   */\n      dup4\n        /* \"--CODEGEN--\":5127:5143   */\n      add\n        /* \"--CODEGEN--\":5121:5144   */\n      mload\n        /* \"--CODEGEN--\":5156:5234   */\n      tag_219\n        /* \"--CODEGEN--\":5228:5232   */\n      0x20\n        /* \"--CODEGEN--\":5223:5226   */\n      dup7\n        /* \"--CODEGEN--\":5219:5233   */\n      add\n        /* \"--CODEGEN--\":5206:5217   */\n      dup3\n        /* \"--CODEGEN--\":5156:5234   */\n      jump(tag_170)\n    tag_219:\n        /* \"--CODEGEN--\":5069:5246   */\n      pop\n        /* \"--CODEGEN--\":5325:5329   */\n      0x40\n        /* \"--CODEGEN--\":5318:5323   */\n      dup4\n        /* \"--CODEGEN--\":5314:5330   */\n      add\n        /* \"--CODEGEN--\":5308:5331   */\n      mload\n        /* \"--CODEGEN--\":5376:5379   */\n      dup5\n        /* \"--CODEGEN--\":5370:5374   */\n      dup3\n        /* \"--CODEGEN--\":5366:5380   */\n      sub\n        /* \"--CODEGEN--\":5359:5363   */\n      0x40\n        /* \"--CODEGEN--\":5354:5357   */\n      dup7\n        /* \"--CODEGEN--\":5350:5364   */\n      add\n        /* \"--CODEGEN--\":5343:5381   */\n      mstore\n        /* \"--CODEGEN--\":5396:5490   */\n      tag_220\n        /* \"--CODEGEN--\":5485:5489   */\n      dup3\n        /* \"--CODEGEN--\":5472:5483   */\n      dup3\n        /* \"--CODEGEN--\":5396:5490   */\n      jump(tag_183)\n    tag_220:\n        /* \"--CODEGEN--\":5388:5490   */\n      swap2\n      pop\n        /* \"--CODEGEN--\":5256:5502   */\n      pop\n        /* \"--CODEGEN--\":5582:5586   */\n      0x60\n        /* \"--CODEGEN--\":5575:5580   */\n      dup4\n        /* \"--CODEGEN--\":5571:5587   */\n      add\n        /* \"--CODEGEN--\":5565:5588   */\n      mload\n        /* \"--CODEGEN--\":5600:5656   */\n      tag_221\n        /* \"--CODEGEN--\":5650:5654   */\n      0x60\n        /* \"--CODEGEN--\":5645:5648   */\n      dup7\n        /* \"--CODEGEN--\":5641:5655   */\n      add\n        /* \"--CODEGEN--\":5628:5639   */\n      dup3\n        /* \"--CODEGEN--\":5600:5656   */\n      jump(tag_200)\n    tag_221:\n        /* \"--CODEGEN--\":5512:5668   */\n      pop\n        /* \"--CODEGEN--\":5685:5689   */\n      dup1\n        /* \"--CODEGEN--\":5678:5689   */\n      swap2\n      pop\n        /* \"--CODEGEN--\":4858:5694   */\n      pop\n      swap3\n      swap2\n      pop\n      pop\n      jump\n        /* \"--CODEGEN--\":5701:5811   */\n    tag_213:\n        /* \"--CODEGEN--\":5774:5805   */\n      tag_223\n        /* \"--CODEGEN--\":5799:5804   */\n      dup2\n        /* \"--CODEGEN--\":5774:5805   */\n      jump(tag_224)\n    tag_223:\n        /* \"--CODEGEN--\":5769:5772   */\n      dup3\n        /* \"--CODEGEN--\":5762:5806   */\n      mstore\n        /* \"--CODEGEN--\":5756:5811   */\n      pop\n      pop\n      jump\n        /* \"--CODEGEN--\":5818:6043   */\n    tag_28:\n      0x0\n        /* \"--CODEGEN--\":5942:5944   */\n      0x20\n        /* \"--CODEGEN--\":5931:5940   */\n      dup3\n        /* \"--CODEGEN--\":5927:5945   */\n      add\n        /* \"--CODEGEN--\":5919:5945   */\n      swap1\n      pop\n        /* \"--CODEGEN--\":5956:6033   */\n      tag_226\n        /* \"--CODEGEN--\":6030:6031   */\n      0x0\n        /* \"--CODEGEN--\":6019:6028   */\n      dup4\n        /* \"--CODEGEN--\":6015:6032   */\n      add\n        /* \"--CODEGEN--\":6006:6012   */\n      dup5\n        /* \"--CODEGEN--\":5956:6033   */\n      jump(tag_170)\n    tag_226:\n        /* \"--CODEGEN--\":5913:6043   */\n      swap3\n      swap2\n      pop\n      pop\n      jump\n        /* \"--CODEGEN--\":6050:6467   */\n    tag_42:\n      0x0\n        /* \"--CODEGEN--\":6246:6248   */\n      0x20\n        /* \"--CODEGEN--\":6235:6244   */\n      dup3\n        /* \"--CODEGEN--\":6231:6249   */\n      add\n        /* \"--CODEGEN--\":6223:6249   */\n      swap1\n      pop\n        /* \"--CODEGEN--\":6296:6305   */\n      dup2\n        /* \"--CODEGEN--\":6290:6294   */\n      dup2\n        /* \"--CODEGEN--\":6286:6306   */\n      sub\n        /* \"--CODEGEN--\":6282:6283   */\n      0x0\n        /* \"--CODEGEN--\":6271:6280   */\n      dup4\n        /* \"--CODEGEN--\":6267:6284   */\n      add\n        /* \"--CODEGEN--\":6260:6307   */\n      mstore\n        /* \"--CODEGEN--\":6321:6457   */\n      tag_228\n        /* \"--CODEGEN--\":6452:6456   */\n      dup2\n        /* \"--CODEGEN--\":6443:6449   */\n      dup5\n        /* \"--CODEGEN--\":6321:6457   */\n      jump(tag_174)\n    tag_228:\n        /* \"--CODEGEN--\":6313:6457   */\n      swap1\n      pop\n        /* \"--CODEGEN--\":6217:6467   */\n      swap3\n      swap2\n      pop\n      pop\n      jump\n        /* \"--CODEGEN--\":6474:6883   */\n    tag_54:\n      0x0\n        /* \"--CODEGEN--\":6666:6668   */\n      0x20\n        /* \"--CODEGEN--\":6655:6664   */\n      dup3\n        /* \"--CODEGEN--\":6651:6669   */\n      add\n        /* \"--CODEGEN--\":6643:6669   */\n      swap1\n      pop\n        /* \"--CODEGEN--\":6716:6725   */\n      dup2\n        /* \"--CODEGEN--\":6710:6714   */\n      dup2\n        /* \"--CODEGEN--\":6706:6726   */\n      sub\n        /* \"--CODEGEN--\":6702:6703   */\n      0x0\n        /* \"--CODEGEN--\":6691:6700   */\n      dup4\n        /* \"--CODEGEN--\":6687:6704   */\n      add\n        /* \"--CODEGEN--\":6680:6727   */\n      mstore\n        /* \"--CODEGEN--\":6741:6873   */\n      tag_230\n        /* \"--CODEGEN--\":6868:6872   */\n      dup2\n        /* \"--CODEGEN--\":6859:6865   */\n      dup5\n        /* \"--CODEGEN--\":6741:6873   */\n      jump(tag_187)\n    tag_230:\n        /* \"--CODEGEN--\":6733:6873   */\n      swap1\n      pop\n        /* \"--CODEGEN--\":6637:6883   */\n      swap3\n      swap2\n      pop\n      pop\n      jump\n        /* \"--CODEGEN--\":6890:7083   */\n    tag_16:\n      0x0\n        /* \"--CODEGEN--\":6998:7000   */\n      0x20\n        /* \"--CODEGEN--\":6987:6996   */\n      dup3\n        /* \"--CODEGEN--\":6983:7001   */\n      add\n        /* \"--CODEGEN--\":6975:7001   */\n      swap1\n      pop\n        /* \"--CODEGEN--\":7012:7073   */\n      tag_232\n        /* \"--CODEGEN--\":7070:7071   */\n      0x0\n        /* \"--CODEGEN--\":7059:7068   */\n      dup4\n        /* \"--CODEGEN--\":7055:7072   */\n      add\n        /* \"--CODEGEN--\":7046:7052   */\n      dup5\n        /* \"--CODEGEN--\":7012:7073   */\n      jump(tag_213)\n    tag_232:\n        /* \"--CODEGEN--\":6969:7083   */\n      swap3\n      swap2\n      pop\n      pop\n      jump\n        /* \"--CODEGEN--\":7090:7699   */\n    tag_34:\n      0x0\n        /* \"--CODEGEN--\":7314:7317   */\n      0x80\n        /* \"--CODEGEN--\":7303:7312   */\n      dup3\n        /* \"--CODEGEN--\":7299:7318   */\n      add\n        /* \"--CODEGEN--\":7291:7318   */\n      swap1\n      pop\n        /* \"--CODEGEN--\":7329:7390   */\n      tag_234\n        /* \"--CODEGEN--\":7387:7388   */\n      0x0\n        /* \"--CODEGEN--\":7376:7385   */\n      dup4\n        /* \"--CODEGEN--\":7372:7389   */\n      add\n        /* \"--CODEGEN--\":7363:7369   */\n      dup8\n        /* \"--CODEGEN--\":7329:7390   */\n      jump(tag_213)\n    tag_234:\n        /* \"--CODEGEN--\":7401:7479   */\n      tag_235\n        /* \"--CODEGEN--\":7475:7477   */\n      0x20\n        /* \"--CODEGEN--\":7464:7473   */\n      dup4\n        /* \"--CODEGEN--\":7460:7478   */\n      add\n        /* \"--CODEGEN--\":7451:7457   */\n      dup7\n        /* \"--CODEGEN--\":7401:7479   */\n      jump(tag_170)\n    tag_235:\n        /* \"--CODEGEN--\":7527:7536   */\n      dup2\n        /* \"--CODEGEN--\":7521:7525   */\n      dup2\n        /* \"--CODEGEN--\":7517:7537   */\n      sub\n        /* \"--CODEGEN--\":7512:7514   */\n      0x40\n        /* \"--CODEGEN--\":7501:7510   */\n      dup4\n        /* \"--CODEGEN--\":7497:7515   */\n      add\n        /* \"--CODEGEN--\":7490:7538   */\n      mstore\n        /* \"--CODEGEN--\":7552:7616   */\n      tag_236\n        /* \"--CODEGEN--\":7611:7615   */\n      dup2\n        /* \"--CODEGEN--\":7602:7608   */\n      dup6\n        /* \"--CODEGEN--\":7552:7616   */\n      jump(tag_204)\n    tag_236:\n        /* \"--CODEGEN--\":7544:7616   */\n      swap1\n      pop\n        /* \"--CODEGEN--\":7627:7689   */\n      tag_237\n        /* \"--CODEGEN--\":7685:7687   */\n      0x60\n        /* \"--CODEGEN--\":7674:7683   */\n      dup4\n        /* \"--CODEGEN--\":7670:7688   */\n      add\n        /* \"--CODEGEN--\":7661:7667   */\n      dup5\n        /* \"--CODEGEN--\":7627:7689   */\n      jump(tag_213)\n    tag_237:\n        /* \"--CODEGEN--\":7285:7699   */\n      swap6\n      swap5\n      pop\n      pop\n      pop\n      pop\n      pop\n      jump\n        /* \"--CODEGEN--\":7706:8355   */\n    tag_23:\n      0x0\n        /* \"--CODEGEN--\":7950:7953   */\n      0x80\n        /* \"--CODEGEN--\":7939:7948   */\n      dup3\n        /* \"--CODEGEN--\":7935:7954   */\n      add\n        /* \"--CODEGEN--\":7927:7954   */\n      swap1\n      pop\n        /* \"--CODEGEN--\":7965:8026   */\n      tag_239\n        /* \"--CODEGEN--\":8023:8024   */\n      0x0\n        /* \"--CODEGEN--\":8012:8021   */\n      dup4\n        /* \"--CODEGEN--\":8008:8025   */\n      add\n        /* \"--CODEGEN--\":7999:8005   */\n      dup8\n        /* \"--CODEGEN--\":7965:8026   */\n      jump(tag_213)\n    tag_239:\n        /* \"--CODEGEN--\":8037:8115   */\n      tag_240\n        /* \"--CODEGEN--\":8111:8113   */\n      0x20\n        /* \"--CODEGEN--\":8100:8109   */\n      dup4\n        /* \"--CODEGEN--\":8096:8114   */\n      add\n        /* \"--CODEGEN--\":8087:8093   */\n      dup7\n        /* \"--CODEGEN--\":8037:8115   */\n      jump(tag_170)\n    tag_240:\n        /* \"--CODEGEN--\":8163:8172   */\n      dup2\n        /* \"--CODEGEN--\":8157:8161   */\n      dup2\n        /* \"--CODEGEN--\":8153:8173   */\n      sub\n        /* \"--CODEGEN--\":8148:8150   */\n      0x40\n        /* \"--CODEGEN--\":8137:8146   */\n      dup4\n        /* \"--CODEGEN--\":8133:8151   */\n      add\n        /* \"--CODEGEN--\":8126:8174   */\n      mstore\n        /* \"--CODEGEN--\":8188:8278   */\n      tag_241\n        /* \"--CODEGEN--\":8273:8277   */\n      dup2\n        /* \"--CODEGEN--\":8264:8270   */\n      dup6\n        /* \"--CODEGEN--\":8188:8278   */\n      jump(tag_183)\n    tag_241:\n        /* \"--CODEGEN--\":8180:8278   */\n      swap1\n      pop\n        /* \"--CODEGEN--\":8289:8345   */\n      tag_242\n        /* \"--CODEGEN--\":8341:8343   */\n      0x60\n        /* \"--CODEGEN--\":8330:8339   */\n      dup4\n        /* \"--CODEGEN--\":8326:8344   */\n      add\n        /* \"--CODEGEN--\":8317:8323   */\n      dup5\n        /* \"--CODEGEN--\":8289:8345   */\n      jump(tag_200)\n    tag_242:\n        /* \"--CODEGEN--\":7921:8355   */\n      swap6\n      swap5\n      pop\n      pop\n      pop\n      pop\n      pop\n      jump\n        /* \"--CODEGEN--\":8362:8618   */\n    tag_153:\n      0x0\n        /* \"--CODEGEN--\":8424:8426   */\n      0x40\n        /* \"--CODEGEN--\":8418:8427   */\n      mload\n        /* \"--CODEGEN--\":8408:8427   */\n      swap1\n      pop\n        /* \"--CODEGEN--\":8462:8466   */\n      dup2\n        /* \"--CODEGEN--\":8454:8460   */\n      dup2\n        /* \"--CODEGEN--\":8450:8467   */\n      add\n        /* \"--CODEGEN--\":8561:8567   */\n      dup2\n        /* \"--CODEGEN--\":8549:8559   */\n      dup2\n        /* \"--CODEGEN--\":8546:8568   */\n      lt\n        /* \"--CODEGEN--\":8525:8543   */\n      0xffffffffffffffff\n        /* \"--CODEGEN--\":8513:8523   */\n      dup3\n        /* \"--CODEGEN--\":8510:8544   */\n      gt\n        /* \"--CODEGEN--\":8507:8569   */\n      or\n        /* \"--CODEGEN--\":8504:8506   */\n      iszero\n      tag_244\n      jumpi\n        /* \"--CODEGEN--\":8582:8583   */\n      0x0\n        /* \"--CODEGEN--\":8579:8580   */\n      dup1\n        /* \"--CODEGEN--\":8572:8584   */\n      revert\n        /* \"--CODEGEN--\":8504:8506   */\n    tag_244:\n        /* \"--CODEGEN--\":8602:8612   */\n      dup1\n        /* \"--CODEGEN--\":8598:8600   */\n      0x40\n        /* \"--CODEGEN--\":8591:8613   */\n      mstore\n        /* \"--CODEGEN--\":8402:8618   */\n      pop\n      swap2\n      swap1\n      pop\n      jump\n        /* \"--CODEGEN--\":8625:8884   */\n    tag_152:\n      0x0\n        /* \"--CODEGEN--\":8769:8787   */\n      0xffffffffffffffff\n        /* \"--CODEGEN--\":8761:8767   */\n      dup3\n        /* \"--CODEGEN--\":8758:8788   */\n      gt\n        /* \"--CODEGEN--\":8755:8757   */\n      iszero\n      tag_246\n      jumpi\n        /* \"--CODEGEN--\":8801:8802   */\n      0x0\n        /* \"--CODEGEN--\":8798:8799   */\n      dup1\n        /* \"--CODEGEN--\":8791:8803   */\n      revert\n        /* \"--CODEGEN--\":8755:8757   */\n    tag_246:\n        /* \"--CODEGEN--\":8845:8849   */\n      0x1f\n        /* \"--CODEGEN--\":8841:8850   */\n      not\n        /* \"--CODEGEN--\":8834:8838   */\n      0x1f\n        /* \"--CODEGEN--\":8826:8832   */\n      dup4\n        /* \"--CODEGEN--\":8822:8839   */\n      add\n        /* \"--CODEGEN--\":8818:8851   */\n      and\n        /* \"--CODEGEN--\":8810:8851   */\n      swap1\n      pop\n        /* \"--CODEGEN--\":8874:8878   */\n      0x20\n        /* \"--CODEGEN--\":8868:8872   */\n      dup2\n        /* \"--CODEGEN--\":8864:8879   */\n      add\n        /* \"--CODEGEN--\":8856:8879   */\n      swap1\n      pop\n        /* \"--CODEGEN--\":8692:8884   */\n      swap2\n      swap1\n      pop\n      jump\n        /* \"--CODEGEN--\":8893:9033   */\n    tag_178:\n      0x0\n        /* \"--CODEGEN--\":9021:9025   */\n      0x20\n        /* \"--CODEGEN--\":9013:9019   */\n      dup3\n        /* \"--CODEGEN--\":9009:9026   */\n      add\n        /* \"--CODEGEN--\":8998:9026   */\n      swap1\n      pop\n        /* \"--CODEGEN--\":8990:9033   */\n      swap2\n      swap1\n      pop\n      jump\n        /* \"--CODEGEN--\":9044:9182   */\n    tag_191:\n      0x0\n        /* \"--CODEGEN--\":9170:9174   */\n      0x20\n        /* \"--CODEGEN--\":9162:9168   */\n      dup3\n        /* \"--CODEGEN--\":9158:9175   */\n      add\n        /* \"--CODEGEN--\":9147:9175   */\n      swap1\n      pop\n        /* \"--CODEGEN--\":9139:9182   */\n      swap2\n      swap1\n      pop\n      jump\n        /* \"--CODEGEN--\":9191:9317   */\n    tag_176:\n      0x0\n        /* \"--CODEGEN--\":9306:9311   */\n      dup2\n        /* \"--CODEGEN--\":9300:9312   */\n      mload\n        /* \"--CODEGEN--\":9290:9312   */\n      swap1\n      pop\n        /* \"--CODEGEN--\":9284:9317   */\n      swap2\n      swap1\n      pop\n      jump\n        /* \"--CODEGEN--\":9324:9448   */\n    tag_189:\n      0x0\n        /* \"--CODEGEN--\":9437:9442   */\n      dup2\n        /* \"--CODEGEN--\":9431:9443   */\n      mload\n        /* \"--CODEGEN--\":9421:9443   */\n      swap1\n      pop\n        /* \"--CODEGEN--\":9415:9448   */\n      swap2\n      swap1\n      pop\n      jump\n        /* \"--CODEGEN--\":9455:9543   */\n    tag_206:\n      0x0\n        /* \"--CODEGEN--\":9532:9537   */\n      dup2\n        /* \"--CODEGEN--\":9526:9538   */\n      mload\n        /* \"--CODEGEN--\":9516:9538   */\n      swap1\n      pop\n        /* \"--CODEGEN--\":9510:9543   */\n      swap2\n      swap1\n      pop\n      jump\n        /* \"--CODEGEN--\":9551:9692   */\n    tag_185:\n      0x0\n        /* \"--CODEGEN--\":9681:9685   */\n      0x20\n        /* \"--CODEGEN--\":9673:9679   */\n      dup3\n        /* \"--CODEGEN--\":9669:9686   */\n      add\n        /* \"--CODEGEN--\":9658:9686   */\n      swap1\n      pop\n        /* \"--CODEGEN--\":9651:9692   */\n      swap2\n      swap1\n      pop\n      jump\n        /* \"--CODEGEN--\":9701:9840   */\n    tag_198:\n      0x0\n        /* \"--CODEGEN--\":9829:9833   */\n      0x20\n        /* \"--CODEGEN--\":9821:9827   */\n      dup3\n        /* \"--CODEGEN--\":9817:9834   */\n      add\n        /* \"--CODEGEN--\":9806:9834   */\n      swap1\n      pop\n        /* \"--CODEGEN--\":9799:9840   */\n      swap2\n      swap1\n      pop\n      jump\n        /* \"--CODEGEN--\":9848:9961   */\n    tag_172:\n      0x0\n        /* \"--CODEGEN--\":9925:9956   */\n      tag_255\n        /* \"--CODEGEN--\":9950:9955   */\n      dup3\n        /* \"--CODEGEN--\":9925:9956   */\n      jump(tag_256)\n    tag_255:\n        /* \"--CODEGEN--\":9914:9956   */\n      swap1\n      pop\n        /* \"--CODEGEN--\":9908:9961   */\n      swap2\n      swap1\n      pop\n      jump\n        /* \"--CODEGEN--\":9968:10060   */\n    tag_202:\n      0x0\n        /* \"--CODEGEN--\":10048:10053   */\n      dup2\n        /* \"--CODEGEN--\":10041:10054   */\n      iszero\n        /* \"--CODEGEN--\":10034:10055   */\n      iszero\n        /* \"--CODEGEN--\":10023:10055   */\n      swap1\n      pop\n        /* \"--CODEGEN--\":10017:10060   */\n      swap2\n      swap1\n      pop\n      jump\n        /* \"--CODEGEN--\":10067:10195   */\n    tag_256:\n      0x0\n        /* \"--CODEGEN--\":10147:10189   */\n      0xffffffffffffffffffffffffffffffffffffffff\n        /* \"--CODEGEN--\":10140:10145   */\n      dup3\n        /* \"--CODEGEN--\":10136:10190   */\n      and\n        /* \"--CODEGEN--\":10125:10190   */\n      swap1\n      pop\n        /* \"--CODEGEN--\":10119:10195   */\n      swap2\n      swap1\n      pop\n      jump\n        /* \"--CODEGEN--\":10202:10281   */\n    tag_224:\n      0x0\n        /* \"--CODEGEN--\":10271:10276   */\n      dup2\n        /* \"--CODEGEN--\":10260:10276   */\n      swap1\n      pop\n        /* \"--CODEGEN--\":10254:10281   */\n      swap2\n      swap1\n      pop\n      jump\n        /* \"--CODEGEN--\":10288:10367   */\n    tag_160:\n      0x0\n        /* \"--CODEGEN--\":10357:10362   */\n      dup2\n        /* \"--CODEGEN--\":10346:10362   */\n      swap1\n      pop\n        /* \"--CODEGEN--\":10340:10367   */\n      swap2\n      swap1\n      pop\n      jump\n        /* \"--CODEGEN--\":10375:10520   */\n    tag_156:\n        /* \"--CODEGEN--\":10456:10462   */\n      dup3\n        /* \"--CODEGEN--\":10451:10454   */\n      dup2\n        /* \"--CODEGEN--\":10446:10449   */\n      dup4\n        /* \"--CODEGEN--\":10433:10463   */\n      calldatacopy\n        /* \"--CODEGEN--\":10512:10513   */\n      0x0\n        /* \"--CODEGEN--\":10503:10509   */\n      dup4\n        /* \"--CODEGEN--\":10498:10501   */\n      dup4\n        /* \"--CODEGEN--\":10494:10510   */\n      add\n        /* \"--CODEGEN--\":10487:10514   */\n      mstore\n        /* \"--CODEGEN--\":10426:10520   */\n      pop\n      pop\n      pop\n      jump\n        /* \"--CODEGEN--\":10529:10797   */\n    tag_208:\n        /* \"--CODEGEN--\":10594:10595   */\n      0x0\n        /* \"--CODEGEN--\":10601:10702   */\n    tag_263:\n        /* \"--CODEGEN--\":10615:10621   */\n      dup4\n        /* \"--CODEGEN--\":10612:10613   */\n      dup2\n        /* \"--CODEGEN--\":10609:10622   */\n      lt\n        /* \"--CODEGEN--\":10601:10702   */\n      iszero\n      tag_264\n      jumpi\n        /* \"--CODEGEN--\":10691:10692   */\n      dup1\n        /* \"--CODEGEN--\":10686:10689   */\n      dup3\n        /* \"--CODEGEN--\":10682:10693   */\n      add\n        /* \"--CODEGEN--\":10676:10694   */\n      mload\n        /* \"--CODEGEN--\":10672:10673   */\n      dup2\n        /* \"--CODEGEN--\":10667:10670   */\n      dup5\n        /* \"--CODEGEN--\":10663:10674   */\n      add\n        /* \"--CODEGEN--\":10656:10695   */\n      mstore\n        /* \"--CODEGEN--\":10637:10639   */\n      0x20\n        /* \"--CODEGEN--\":10634:10635   */\n      dup2\n        /* \"--CODEGEN--\":10630:10640   */\n      add\n        /* \"--CODEGEN--\":10625:10640   */\n      swap1\n      pop\n        /* \"--CODEGEN--\":10601:10702   */\n      jump(tag_263)\n    tag_264:\n        /* \"--CODEGEN--\":10717:10723   */\n      dup4\n        /* \"--CODEGEN--\":10714:10715   */\n      dup2\n        /* \"--CODEGEN--\":10711:10724   */\n      gt\n        /* \"--CODEGEN--\":10708:10710   */\n      iszero\n      tag_266\n      jumpi\n        /* \"--CODEGEN--\":10782:10783   */\n      0x0\n        /* \"--CODEGEN--\":10773:10779   */\n      dup5\n        /* \"--CODEGEN--\":10768:10771   */\n      dup5\n        /* \"--CODEGEN--\":10764:10780   */\n      add\n        /* \"--CODEGEN--\":10757:10784   */\n      mstore\n        /* \"--CODEGEN--\":10708:10710   */\n    tag_266:\n        /* \"--CODEGEN--\":10578:10797   */\n      pop\n      pop\n      pop\n      pop\n      jump\n        /* \"--CODEGEN--\":10805:10902   */\n    tag_210:\n      0x0\n        /* \"--CODEGEN--\":10893:10895   */\n      0x1f\n        /* \"--CODEGEN--\":10889:10896   */\n      not\n        /* \"--CODEGEN--\":10884:10886   */\n      0x1f\n        /* \"--CODEGEN--\":10877:10882   */\n      dup4\n        /* \"--CODEGEN--\":10873:10887   */\n      add\n        /* \"--CODEGEN--\":10869:10897   */\n      and\n        /* \"--CODEGEN--\":10859:10897   */\n      swap1\n      pop\n        /* \"--CODEGEN--\":10853:10902   */\n      swap2\n      swap1\n      pop\n      jump\n\n    auxdata: 0xa265627a7a7230582079e4f21d76f2b26840724939f5884ef2c66cdae09a1663e372394b754190781e6c6578706572696d656e74616cf50037\n}\n","bytecode":{"linkReferences":{},"object":"608060405233600460006101000a81548173ffffffffffffffffffffffffffffffffffffffff021916908373ffffffffffffffffffffffffffffffffffffffff16021790555061168d806100546000396000f3fe6080604052600436106100a4576000357c0100000000000000000000000000000000000000000000000000000000900463ffffffff16806302c5115b146100a95780631e6c598e146100d4578063481c6a75146101145780637acc0b201461013f5780638642269e1461017f578063c29b2f201461019b578063c5ce3911146101c6578063d781d7c8146101f1578063e43372e91461020d578063e9300c6c14610238575b600080fd5b3480156100b557600080fd5b506100be610261565b6040516100cb919061144d565b60405180910390f35b3480156100e057600080fd5b506100fb60048036036100f691908101906111c0565b610267565b60405161010b94939291906114b4565b60405180910390f35b34801561012057600080fd5b506101296103ea565b60405161013691906113ee565b60405180910390f35b34801561014b57600080fd5b50610166600480360361016191908101906111c0565b610410565b6040516101769493929190611468565b60405180910390f35b610199600480360361019491908101906111c0565b610507565b005b3480156101a757600080fd5b506101b0610940565b6040516101bd9190611409565b60405180910390f35b3480156101d257600080fd5b506101db610aac565b6040516101e8919061144d565b60405180910390f35b61020b600480360361020691908101906111c0565b610ab2565b005b34801561021957600080fd5b50610222610c98565b60405161022f919061142b565b60405180910390f35b34801561024457600080fd5b5061025f600480360361025a919081019061116c565b610e94565b005b60035481565b60018181548110151561027657fe5b90600052602060002090600702016000915090508060000154908060010160009054906101000a900473ffffffffffffffffffffffffffffffffffffffff16908060020160806040519081016040529081600082015481526020016001820160009054906101000a900473ffffffffffffffffffffffffffffffffffffffff1673ffffffffffffffffffffffffffffffffffffffff1673ffffffffffffffffffffffffffffffffffffffff168152602001600282018054600181600116156101000203166002900480601f0160208091040260200160405190810160405280929190818152602001828054600181600116156101000203166002900480156103bf5780601f10610394576101008083540402835291602001916103bf565b820191906000526020600020905b8154815290600101906020018083116103a257829003601f168201915b50505050508152602001600382015481525050908060060160009054906101000a900460ff16905084565b600460009054906101000a900473ffffffffffffffffffffffffffffffffffffffff1681565b60008181548110151561041f57fe5b90600052602060002090600402016000915090508060000154908060010160009054906101000a900473ffffffffffffffffffffffffffffffffffffffff1690806002018054600181600116156101000203166002900480601f0160208091040260200160405190810160405280929190818152602001828054600181600116156101000203166002900480156104f75780601f106104cc576101008083540402835291602001916104f7565b820191906000526020600020905b8154815290600101906020018083116104da57829003601f168201915b5050505050908060030154905084565b60008090505b60008054905081101561093c578160008281548110151561052a57fe5b906000526020600020906004020160000154141561092f5760008181548110151561055157fe5b9060005260206000209060040201600301543414151561057057600080fd5b610578610f98565b60806040519081016040528060035481526020013373ffffffffffffffffffffffffffffffffffffffff1681526020016000848154811015156105b757fe5b906000526020600020906004020160806040519081016040529081600082015481526020016001820160009054906101000a900473ffffffffffffffffffffffffffffffffffffffff1673ffffffffffffffffffffffffffffffffffffffff1673ffffffffffffffffffffffffffffffffffffffff168152602001600282018054600181600116156101000203166002900480601f0160208091040260200160405190810160405280929190818152602001828054600181600116156101000203166002900480156106ca5780601f1061069f576101008083540402835291602001916106ca565b820191906000526020600020905b8154815290600101906020018083116106ad57829003601f168201915b505050505081526020016003820154815250508152602001600015158152509050600181908060018154018082558091505090600182039060005260206000209060070201600090919290919091506000820151816000015560208201518160010160006101000a81548173ffffffffffffffffffffffffffffffffffffffff021916908373ffffffffffffffffffffffffffffffffffffffff1602179055506040820151816002016000820151816000015560208201518160010160006101000a81548173ffffffffffffffffffffffffffffffffffffffff021916908373ffffffffffffffffffffffffffffffffffffffff16021790555060408201518160020190805190602001906107e0929190610fdf565b5060608201518160030155505060608201518160060160006101000a81548160ff02191690831515021790555050505060036000815480929190600101919050555060008281548110151561083157fe5b906000526020600020906004020160010160009054906101000a900473ffffffffffffffffffffffffffffffffffffffff1673ffffffffffffffffffffffffffffffffffffffff166108fc60053481151561088857fe5b049081150290604051600060405180830381858888f193505050501580156108b4573d6000803e3d6000fd5b50600460009054906101000a900473ffffffffffffffffffffffffffffffffffffffff1673ffffffffffffffffffffffffffffffffffffffff166108fc60056004340281151561090057fe5b049081150290604051600060405180830381858888f1935050505015801561092c573d6000803e3d6000fd5b50505b808060010191505061050d565b5050565b60606000805480602002602001604051908101604052809291908181526020016000905b82821015610aa3578382906000526020600020906004020160806040519081016040529081600082015481526020016001820160009054906101000a900473ffffffffffffffffffffffffffffffffffffffff1673ffffffffffffffffffffffffffffffffffffffff1673ffffffffffffffffffffffffffffffffffffffff168152602001600282018054600181600116156101000203166002900480601f016020809104026020016040519081016040528092919081815260200182805460018160011615610100020316600290048015610a815780601f10610a5657610100808354040283529160200191610a81565b820191906000526020600020905b815481529060010190602001808311610a6457829003601f168201915b5050505050815260200160038201548152505081526020019060010190610964565b50505050905090565b60025481565b600460009054906101000a900473ffffffffffffffffffffffffffffffffffffffff1673ffffffffffffffffffffffffffffffffffffffff163373ffffffffffffffffffffffffffffffffffffffff16141515610b0e57600080fd5b60008090505b600180549050811015610c945781600182815481101515610b3157fe5b9060005260206000209060070201600001541415610c8757600181815481101515610b5857fe5b906000526020600020906007020160060160009054906101000a900460ff16151515610b8357600080fd5b60056004600183815481101515610b9657fe5b90600052602060002090600702016002016003015402811515610bb557fe5b043411151515610bc457600080fd5b600181815481101515610bd357fe5b906000526020600020906007020160020160010160009054906101000a900473ffffffffffffffffffffffffffffffffffffffff1673ffffffffffffffffffffffffffffffffffffffff166108fc349081150290604051600060405180830381858888f19350505050158015610c4d573d6000803e3d6000fd5b5060018082815481101515610c5e57fe5b906000526020600020906007020160060160006101000a81548160ff0219169083151502179055505b8080600101915050610b14565b5050565b60606001805480602002602001604051908101604052809291908181526020016000905b82821015610e8b578382906000526020600020906007020160806040519081016040529081600082015481526020016001820160009054906101000a900473ffffffffffffffffffffffffffffffffffffffff1673ffffffffffffffffffffffffffffffffffffffff1673ffffffffffffffffffffffffffffffffffffffff1681526020016002820160806040519081016040529081600082015481526020016001820160009054906101000a900473ffffffffffffffffffffffffffffffffffffffff1673ffffffffffffffffffffffffffffffffffffffff1673ffffffffffffffffffffffffffffffffffffffff168152602001600282018054600181600116156101000203166002900480601f016020809104026020016040519081016040528092919081815260200182805460018160011615610100020316600290048015610e4a5780601f10610e1f57610100808354040283529160200191610e4a565b820191906000526020600020905b815481529060010190602001808311610e2d57829003601f168201915b5050505050815260200160038201548152505081526020016006820160009054906101000a900460ff16151515158152505081526020019060010190610cbc565b50505050905090565b610e9c61105f565b60806040519081016040528060025481526020013373ffffffffffffffffffffffffffffffffffffffff168152602001848152602001838152509050600260008154809291906001019190505550600081908060018154018082558091505090600182039060005260206000209060040201600090919290919091506000820151816000015560208201518160010160006101000a81548173ffffffffffffffffffffffffffffffffffffffff021916908373ffffffffffffffffffffffffffffffffffffffff1602179055506040820151816002019080519060200190610f85929190610fdf565b5060608201518160030155505050505050565b60e06040519081016040528060008152602001600073ffffffffffffffffffffffffffffffffffffffff168152602001610fd061109e565b81526020016000151581525090565b828054600181600116156101000203166002900490600052602060002090601f016020900481019282601f1061102057805160ff191683800117855561104e565b8280016001018555821561104e579182015b8281111561104d578251825591602001919060010190611032565b5b50905061105b91906110dd565b5090565b60806040519081016040528060008152602001600073ffffffffffffffffffffffffffffffffffffffff16815260200160608152602001600081525090565b60806040519081016040528060008152602001600073ffffffffffffffffffffffffffffffffffffffff16815260200160608152602001600081525090565b6110ff91905b808211156110fb5760008160009055506001016110e3565b5090565b90565b600082601f830112151561111557600080fd5b81356111286111238261152d565b611500565b9150808252602083016020830185838301111561114457600080fd5b61114f838284611600565b50505092915050565b600061116482356115f6565b905092915050565b6000806040838503121561117f57600080fd5b600083013567ffffffffffffffff81111561119957600080fd5b6111a585828601611102565b92505060206111b685828601611158565b9150509250929050565b6000602082840312156111d257600080fd5b60006111e084828501611158565b91505092915050565b6111f2816115ae565b82525050565b600061120382611573565b8084526020840193508360208202850161121c85611559565b60005b84811015611255578383038852611237838351611319565b925061124282611594565b915060208801975060018101905061121f565b508196508694505050505092915050565b60006112718261157e565b8084526020840193508360208202850161128a85611566565b60005b848110156112c35783830388526112a583835161137c565b92506112b0826115a1565b915060208801975060018101905061128d565b508196508694505050505092915050565b6112dd816115c0565b82525050565b60006112ee82611589565b80845261130281602086016020860161160f565b61130b81611642565b602085010191505092915050565b600060808301600083015161133160008601826113df565b50602083015161134460208601826111e9565b506040830151848203604086015261135c82826112e3565b915050606083015161137160608601826113df565b508091505092915050565b600060808301600083015161139460008601826113df565b5060208301516113a760208601826111e9565b50604083015184820360408601526113bf8282611319565b91505060608301516113d460608601826112d4565b508091505092915050565b6113e8816115ec565b82525050565b600060208201905061140360008301846111e9565b92915050565b6000602082019050818103600083015261142381846111f8565b905092915050565b600060208201905081810360008301526114458184611266565b905092915050565b600060208201905061146260008301846113df565b92915050565b600060808201905061147d60008301876113df565b61148a60208301866111e9565b818103604083015261149c81856112e3565b90506114ab60608301846113df565b95945050505050565b60006080820190506114c960008301876113df565b6114d660208301866111e9565b81810360408301526114e88185611319565b90506114f760608301846112d4565b95945050505050565b6000604051905081810181811067ffffffffffffffff8211171561152357600080fd5b8060405250919050565b600067ffffffffffffffff82111561154457600080fd5b601f19601f8301169050602081019050919050565b6000602082019050919050565b6000602082019050919050565b600081519050919050565b600081519050919050565b600081519050919050565b6000602082019050919050565b6000602082019050919050565b60006115b9826115cc565b9050919050565b60008115159050919050565b600073ffffffffffffffffffffffffffffffffffffffff82169050919050565b6000819050919050565b6000819050919050565b82818337600083830152505050565b60005b8381101561162d578082015181840152602081019050611612565b8381111561163c576000848401525b50505050565b6000601f19601f830116905091905056fea265627a7a7230582079e4f21d76f2b26840724939f5884ef2c66cdae09a1663e372394b754190781e6c6578706572696d656e74616cf50037","opcodes":"PUSH1 0x80 PUSH1 0x40 MSTORE CALLER PUSH1 0x4 PUSH1 0x0 PUSH2 0x100 EXP DUP2 SLOAD DUP2 PUSH20 0xFFFFFFFFFFFFFFFFFFFFFFFFFFFFFFFFFFFFFFFF MUL NOT AND SWAP1 DUP4 PUSH20 0xFFFFFFFFFFFFFFFFFFFFFFFFFFFFFFFFFFFFFFFF AND MUL OR SWAP1 SSTORE POP PUSH2 0x168D DUP1 PUSH2 0x54 PUSH1 0x0 CODECOPY PUSH1 0x0 RETURN INVALID PUSH1 0x80 PUSH1 0x40 MSTORE PUSH1 0x4 CALLDATASIZE LT PUSH2 0xA4 JUMPI PUSH1 0x0 CALLDATALOAD PUSH29 0x100000000000000000000000000000000000000000000000000000000 SWAP1 DIV PUSH4 0xFFFFFFFF AND DUP1 PUSH4 0x2C5115B EQ PUSH2 0xA9 JUMPI DUP1 PUSH4 0x1E6C598E EQ PUSH2 0xD4 JUMPI DUP1 PUSH4 0x481C6A75 EQ PUSH2 0x114 JUMPI DUP1 PUSH4 0x7ACC0B20 EQ PUSH2 0x13F JUMPI DUP1 PUSH4 0x8642269E EQ PUSH2 0x17F JUMPI DUP1 PUSH4 0xC29B2F20 EQ PUSH2 0x19B JUMPI DUP1 PUSH4 0xC5CE3911 EQ PUSH2 0x1C6 JUMPI DUP1 PUSH4 0xD781D7C8 EQ PUSH2 0x1F1 JUMPI DUP1 PUSH4 0xE43372E9 EQ PUSH2 0x20D JUMPI DUP1 PUSH4 0xE9300C6C EQ PUSH2 0x238 JUMPI JUMPDEST PUSH1 0x0 DUP1 REVERT JUMPDEST CALLVALUE DUP1 ISZERO PUSH2 0xB5 JUMPI PUSH1 0x0 DUP1 REVERT JUMPDEST POP PUSH2 0xBE PUSH2 0x261 JUMP JUMPDEST PUSH1 0x40 MLOAD PUSH2 0xCB SWAP2 SWAP1 PUSH2 0x144D JUMP JUMPDEST PUSH1 0x40 MLOAD DUP1 SWAP2 SUB SWAP1 RETURN JUMPDEST CALLVALUE DUP1 ISZERO PUSH2 0xE0 JUMPI PUSH1 0x0 DUP1 REVERT JUMPDEST POP PUSH2 0xFB PUSH1 0x4 DUP1 CALLDATASIZE SUB PUSH2 0xF6 SWAP2 SWAP1 DUP2 ADD SWAP1 PUSH2 0x11C0 JUMP JUMPDEST PUSH2 0x267 JUMP JUMPDEST PUSH1 0x40 MLOAD PUSH2 0x10B SWAP5 SWAP4 SWAP3 SWAP2 SWAP1 PUSH2 0x14B4 JUMP JUMPDEST PUSH1 0x40 MLOAD DUP1 SWAP2 SUB SWAP1 RETURN JUMPDEST CALLVALUE DUP1 ISZERO PUSH2 0x120 JUMPI PUSH1 0x0 DUP1 REVERT JUMPDEST POP PUSH2 0x129 PUSH2 0x3EA JUMP JUMPDEST PUSH1 0x40 MLOAD PUSH2 0x136 SWAP2 SWAP1 PUSH2 0x13EE JUMP JUMPDEST PUSH1 0x40 MLOAD DUP1 SWAP2 SUB SWAP1 RETURN JUMPDEST CALLVALUE DUP1 ISZERO PUSH2 0x14B JUMPI PUSH1 0x0 DUP1 REVERT JUMPDEST POP PUSH2 0x166 PUSH1 0x4 DUP1 CALLDATASIZE SUB PUSH2 0x161 SWAP2 SWAP1 DUP2 ADD SWAP1 PUSH2 0x11C0 JUMP JUMPDEST PUSH2 0x410 JUMP JUMPDEST PUSH1 0x40 MLOAD PUSH2 0x176 SWAP5 SWAP4 SWAP3 SWAP2 SWAP1 PUSH2 0x1468 JUMP JUMPDEST PUSH1 0x40 MLOAD DUP1 SWAP2 SUB SWAP1 RETURN JUMPDEST PUSH2 0x199 PUSH1 0x4 DUP1 CALLDATASIZE SUB PUSH2 0x194 SWAP2 SWAP1 DUP2 ADD SWAP1 PUSH2 0x11C0 JUMP JUMPDEST PUSH2 0x507 JUMP JUMPDEST STOP JUMPDEST CALLVALUE DUP1 ISZERO PUSH2 0x1A7 JUMPI PUSH1 0x0 DUP1 REVERT JUMPDEST POP PUSH2 0x1B0 PUSH2 0x940 JUMP JUMPDEST PUSH1 0x40 MLOAD PUSH2 0x1BD SWAP2 SWAP1 PUSH2 0x1409 JUMP JUMPDEST PUSH1 0x40 MLOAD DUP1 SWAP2 SUB SWAP1 RETURN JUMPDEST CALLVALUE DUP1 ISZERO PUSH2 0x1D2 JUMPI PUSH1 0x0 DUP1 REVERT JUMPDEST POP PUSH2 0x1DB PUSH2 0xAAC JUMP JUMPDEST PUSH1 0x40 MLOAD PUSH2 0x1E8 SWAP2 SWAP1 PUSH2 0x144D JUMP JUMPDEST PUSH1 0x40 MLOAD DUP1 SWAP2 SUB SWAP1 RETURN JUMPDEST PUSH2 0x20B PUSH1 0x4 DUP1 CALLDATASIZE SUB PUSH2 0x206 SWAP2 SWAP1 DUP2 ADD SWAP1 PUSH2 0x11C0 JUMP JUMPDEST PUSH2 0xAB2 JUMP JUMPDEST STOP JUMPDEST CALLVALUE DUP1 ISZERO PUSH2 0x219 JUMPI PUSH1 0x0 DUP1 REVERT JUMPDEST POP PUSH2 0x222 PUSH2 0xC98 JUMP JUMPDEST PUSH1 0x40 MLOAD PUSH2 0x22F SWAP2 SWAP1 PUSH2 0x142B JUMP JUMPDEST PUSH1 0x40 MLOAD DUP1 SWAP2 SUB SWAP1 RETURN JUMPDEST CALLVALUE DUP1 ISZERO PUSH2 0x244 JUMPI PUSH1 0x0 DUP1 REVERT JUMPDEST POP PUSH2 0x25F PUSH1 0x4 DUP1 CALLDATASIZE SUB PUSH2 0x25A SWAP2 SWAP1 DUP2 ADD SWAP1 PUSH2 0x116C JUMP JUMPDEST PUSH2 0xE94 JUMP JUMPDEST STOP JUMPDEST PUSH1 0x3 SLOAD DUP2 JUMP JUMPDEST PUSH1 0x1 DUP2 DUP2 SLOAD DUP2 LT ISZERO ISZERO PUSH2 0x276 JUMPI INVALID JUMPDEST SWAP1 PUSH1 0x0 MSTORE PUSH1 0x20 PUSH1 0x0 KECCAK256 SWAP1 PUSH1 0x7 MUL ADD PUSH1 0x0 SWAP2 POP SWAP1 POP DUP1 PUSH1 0x0 ADD SLOAD SWAP1 DUP1 PUSH1 0x1 ADD PUSH1 0x0 SWAP1 SLOAD SWAP1 PUSH2 0x100 EXP SWAP1 DIV PUSH20 0xFFFFFFFFFFFFFFFFFFFFFFFFFFFFFFFFFFFFFFFF AND SWAP1 DUP1 PUSH1 0x2 ADD PUSH1 0x80 PUSH1 0x40 MLOAD SWAP1 DUP2 ADD PUSH1 0x40 MSTORE SWAP1 DUP2 PUSH1 0x0 DUP3 ADD SLOAD DUP2 MSTORE PUSH1 0x20 ADD PUSH1 0x1 DUP3 ADD PUSH1 0x0 SWAP1 SLOAD SWAP1 PUSH2 0x100 EXP SWAP1 DIV PUSH20 0xFFFFFFFFFFFFFFFFFFFFFFFFFFFFFFFFFFFFFFFF AND PUSH20 0xFFFFFFFFFFFFFFFFFFFFFFFFFFFFFFFFFFFFFFFF AND PUSH20 0xFFFFFFFFFFFFFFFFFFFFFFFFFFFFFFFFFFFFFFFF AND DUP2 MSTORE PUSH1 0x20 ADD PUSH1 0x2 DUP3 ADD DUP1 SLOAD PUSH1 0x1 DUP2 PUSH1 0x1 AND ISZERO PUSH2 0x100 MUL SUB AND PUSH1 0x2 SWAP1 DIV DUP1 PUSH1 0x1F ADD PUSH1 0x20 DUP1 SWAP2 DIV MUL PUSH1 0x20 ADD PUSH1 0x40 MLOAD SWAP1 DUP2 ADD PUSH1 0x40 MSTORE DUP1 SWAP3 SWAP2 SWAP1 DUP2 DUP2 MSTORE PUSH1 0x20 ADD DUP3 DUP1 SLOAD PUSH1 0x1 DUP2 PUSH1 0x1 AND ISZERO PUSH2 0x100 MUL SUB AND PUSH1 0x2 SWAP1 DIV DUP1 ISZERO PUSH2 0x3BF JUMPI DUP1 PUSH1 0x1F LT PUSH2 0x394 JUMPI PUSH2 0x100 DUP1 DUP4 SLOAD DIV MUL DUP4 MSTORE SWAP2 PUSH1 0x20 ADD SWAP2 PUSH2 0x3BF JUMP JUMPDEST DUP3 ADD SWAP2 SWAP1 PUSH1 0x0 MSTORE PUSH1 0x20 PUSH1 0x0 KECCAK256 SWAP1 JUMPDEST DUP2 SLOAD DUP2 MSTORE SWAP1 PUSH1 0x1 ADD SWAP1 PUSH1 0x20 ADD DUP1 DUP4 GT PUSH2 0x3A2 JUMPI DUP3 SWAP1 SUB PUSH1 0x1F AND DUP3 ADD SWAP2 JUMPDEST POP POP POP POP POP DUP2 MSTORE PUSH1 0x20 ADD PUSH1 0x3 DUP3 ADD SLOAD DUP2 MSTORE POP POP SWAP1 DUP1 PUSH1 0x6 ADD PUSH1 0x0 SWAP1 SLOAD SWAP1 PUSH2 0x100 EXP SWAP1 DIV PUSH1 0xFF AND SWAP1 POP DUP5 JUMP JUMPDEST PUSH1 0x4 PUSH1 0x0 SWAP1 SLOAD SWAP1 PUSH2 0x100 EXP SWAP1 DIV PUSH20 0xFFFFFFFFFFFFFFFFFFFFFFFFFFFFFFFFFFFFFFFF AND DUP2 JUMP JUMPDEST PUSH1 0x0 DUP2 DUP2 SLOAD DUP2 LT ISZERO ISZERO PUSH2 0x41F JUMPI INVALID JUMPDEST SWAP1 PUSH1 0x0 MSTORE PUSH1 0x20 PUSH1 0x0 KECCAK256 SWAP1 PUSH1 0x4 MUL ADD PUSH1 0x0 SWAP2 POP SWAP1 POP DUP1 PUSH1 0x0 ADD SLOAD SWAP1 DUP1 PUSH1 0x1 ADD PUSH1 0x0 SWAP1 SLOAD SWAP1 PUSH2 0x100 EXP SWAP1 DIV PUSH20 0xFFFFFFFFFFFFFFFFFFFFFFFFFFFFFFFFFFFFFFFF AND SWAP1 DUP1 PUSH1 0x2 ADD DUP1 SLOAD PUSH1 0x1 DUP2 PUSH1 0x1 AND ISZERO PUSH2 0x100 MUL SUB AND PUSH1 0x2 SWAP1 DIV DUP1 PUSH1 0x1F ADD PUSH1 0x20 DUP1 SWAP2 DIV MUL PUSH1 0x20 ADD PUSH1 0x40 MLOAD SWAP1 DUP2 ADD PUSH1 0x40 MSTORE DUP1 SWAP3 SWAP2 SWAP1 DUP2 DUP2 MSTORE PUSH1 0x20 ADD DUP3 DUP1 SLOAD PUSH1 0x1 DUP2 PUSH1 0x1 AND ISZERO PUSH2 0x100 MUL SUB AND PUSH1 0x2 SWAP1 DIV DUP1 ISZERO PUSH2 0x4F7 JUMPI DUP1 PUSH1 0x1F LT PUSH2 0x4CC JUMPI PUSH2 0x100 DUP1 DUP4 SLOAD DIV MUL DUP4 MSTORE SWAP2 PUSH1 0x20 ADD SWAP2 PUSH2 0x4F7 JUMP JUMPDEST DUP3 ADD SWAP2 SWAP1 PUSH1 0x0 MSTORE PUSH1 0x20 PUSH1 0x0 KECCAK256 SWAP1 JUMPDEST DUP2 SLOAD DUP2 MSTORE SWAP1 PUSH1 0x1 ADD SWAP1 PUSH1 0x20 ADD DUP1 DUP4 GT PUSH2 0x4DA JUMPI DUP3 SWAP1 SUB PUSH1 0x1F AND DUP3 ADD SWAP2 JUMPDEST POP POP POP POP POP SWAP1 DUP1 PUSH1 0x3 ADD SLOAD SWAP1 POP DUP5 JUMP JUMPDEST PUSH1 0x0 DUP1 SWAP1 POP JUMPDEST PUSH1 0x0 DUP1 SLOAD SWAP1 POP DUP2 LT ISZERO PUSH2 0x93C JUMPI DUP2 PUSH1 0x0 DUP3 DUP2 SLOAD DUP2 LT ISZERO ISZERO PUSH2 0x52A JUMPI INVALID JUMPDEST SWAP1 PUSH1 0x0 MSTORE PUSH1 0x20 PUSH1 0x0 KECCAK256 SWAP1 PUSH1 0x4 MUL ADD PUSH1 0x0 ADD SLOAD EQ ISZERO PUSH2 0x92F JUMPI PUSH1 0x0 DUP2 DUP2 SLOAD DUP2 LT ISZERO ISZERO PUSH2 0x551 JUMPI INVALID JUMPDEST SWAP1 PUSH1 0x0 MSTORE PUSH1 0x20 PUSH1 0x0 KECCAK256 SWAP1 PUSH1 0x4 MUL ADD PUSH1 0x3 ADD SLOAD CALLVALUE EQ ISZERO ISZERO PUSH2 0x570 JUMPI PUSH1 0x0 DUP1 REVERT JUMPDEST PUSH2 0x578 PUSH2 0xF98 JUMP JUMPDEST PUSH1 0x80 PUSH1 0x40 MLOAD SWAP1 DUP2 ADD PUSH1 0x40 MSTORE DUP1 PUSH1 0x3 SLOAD DUP2 MSTORE PUSH1 0x20 ADD CALLER PUSH20 0xFFFFFFFFFFFFFFFFFFFFFFFFFFFFFFFFFFFFFFFF AND DUP2 MSTORE PUSH1 0x20 ADD PUSH1 0x0 DUP5 DUP2 SLOAD DUP2 LT ISZERO ISZERO PUSH2 0x5B7 JUMPI INVALID JUMPDEST SWAP1 PUSH1 0x0 MSTORE PUSH1 0x20 PUSH1 0x0 KECCAK256 SWAP1 PUSH1 0x4 MUL ADD PUSH1 0x80 PUSH1 0x40 MLOAD SWAP1 DUP2 ADD PUSH1 0x40 MSTORE SWAP1 DUP2 PUSH1 0x0 DUP3 ADD SLOAD DUP2 MSTORE PUSH1 0x20 ADD PUSH1 0x1 DUP3 ADD PUSH1 0x0 SWAP1 SLOAD SWAP1 PUSH2 0x100 EXP SWAP1 DIV PUSH20 0xFFFFFFFFFFFFFFFFFFFFFFFFFFFFFFFFFFFFFFFF AND PUSH20 0xFFFFFFFFFFFFFFFFFFFFFFFFFFFFFFFFFFFFFFFF AND PUSH20 0xFFFFFFFFFFFFFFFFFFFFFFFFFFFFFFFFFFFFFFFF AND DUP2 MSTORE PUSH1 0x20 ADD PUSH1 0x2 DUP3 ADD DUP1 SLOAD PUSH1 0x1 DUP2 PUSH1 0x1 AND ISZERO PUSH2 0x100 MUL SUB AND PUSH1 0x2 SWAP1 DIV DUP1 PUSH1 0x1F ADD PUSH1 0x20 DUP1 SWAP2 DIV MUL PUSH1 0x20 ADD PUSH1 0x40 MLOAD SWAP1 DUP2 ADD PUSH1 0x40 MSTORE DUP1 SWAP3 SWAP2 SWAP1 DUP2 DUP2 MSTORE PUSH1 0x20 ADD DUP3 DUP1 SLOAD PUSH1 0x1 DUP2 PUSH1 0x1 AND ISZERO PUSH2 0x100 MUL SUB AND PUSH1 0x2 SWAP1 DIV DUP1 ISZERO PUSH2 0x6CA JUMPI DUP1 PUSH1 0x1F LT PUSH2 0x69F JUMPI PUSH2 0x100 DUP1 DUP4 SLOAD DIV MUL DUP4 MSTORE SWAP2 PUSH1 0x20 ADD SWAP2 PUSH2 0x6CA JUMP JUMPDEST DUP3 ADD SWAP2 SWAP1 PUSH1 0x0 MSTORE PUSH1 0x20 PUSH1 0x0 KECCAK256 SWAP1 JUMPDEST DUP2 SLOAD DUP2 MSTORE SWAP1 PUSH1 0x1 ADD SWAP1 PUSH1 0x20 ADD DUP1 DUP4 GT PUSH2 0x6AD JUMPI DUP3 SWAP1 SUB PUSH1 0x1F AND DUP3 ADD SWAP2 JUMPDEST POP POP POP POP POP DUP2 MSTORE PUSH1 0x20 ADD PUSH1 0x3 DUP3 ADD SLOAD DUP2 MSTORE POP POP DUP2 MSTORE PUSH1 0x20 ADD PUSH1 0x0 ISZERO ISZERO DUP2 MSTORE POP SWAP1 POP PUSH1 0x1 DUP2 SWAP1 DUP1 PUSH1 0x1 DUP2 SLOAD ADD DUP1 DUP3 SSTORE DUP1 SWAP2 POP POP SWAP1 PUSH1 0x1 DUP3 SUB SWAP1 PUSH1 0x0 MSTORE PUSH1 0x20 PUSH1 0x0 KECCAK256 SWAP1 PUSH1 0x7 MUL ADD PUSH1 0x0 SWAP1 SWAP2 SWAP3 SWAP1 SWAP2 SWAP1 SWAP2 POP PUSH1 0x0 DUP3 ADD MLOAD DUP2 PUSH1 0x0 ADD SSTORE PUSH1 0x20 DUP3 ADD MLOAD DUP2 PUSH1 0x1 ADD PUSH1 0x0 PUSH2 0x100 EXP DUP2 SLOAD DUP2 PUSH20 0xFFFFFFFFFFFFFFFFFFFFFFFFFFFFFFFFFFFFFFFF MUL NOT AND SWAP1 DUP4 PUSH20 0xFFFFFFFFFFFFFFFFFFFFFFFFFFFFFFFFFFFFFFFF AND MUL OR SWAP1 SSTORE POP PUSH1 0x40 DUP3 ADD MLOAD DUP2 PUSH1 0x2 ADD PUSH1 0x0 DUP3 ADD MLOAD DUP2 PUSH1 0x0 ADD SSTORE PUSH1 0x20 DUP3 ADD MLOAD DUP2 PUSH1 0x1 ADD PUSH1 0x0 PUSH2 0x100 EXP DUP2 SLOAD DUP2 PUSH20 0xFFFFFFFFFFFFFFFFFFFFFFFFFFFFFFFFFFFFFFFF MUL NOT AND SWAP1 DUP4 PUSH20 0xFFFFFFFFFFFFFFFFFFFFFFFFFFFFFFFFFFFFFFFF AND MUL OR SWAP1 SSTORE POP PUSH1 0x40 DUP3 ADD MLOAD DUP2 PUSH1 0x2 ADD SWAP1 DUP1 MLOAD SWAP1 PUSH1 0x20 ADD SWAP1 PUSH2 0x7E0 SWAP3 SWAP2 SWAP1 PUSH2 0xFDF JUMP JUMPDEST POP PUSH1 0x60 DUP3 ADD MLOAD DUP2 PUSH1 0x3 ADD SSTORE POP POP PUSH1 0x60 DUP3 ADD MLOAD DUP2 PUSH1 0x6 ADD PUSH1 0x0 PUSH2 0x100 EXP DUP2 SLOAD DUP2 PUSH1 0xFF MUL NOT AND SWAP1 DUP4 ISZERO ISZERO MUL OR SWAP1 SSTORE POP POP POP POP PUSH1 0x3 PUSH1 0x0 DUP2 SLOAD DUP1 SWAP3 SWAP2 SWAP1 PUSH1 0x1 ADD SWAP2 SWAP1 POP SSTORE POP PUSH1 0x0 DUP3 DUP2 SLOAD DUP2 LT ISZERO ISZERO PUSH2 0x831 JUMPI INVALID JUMPDEST SWAP1 PUSH1 0x0 MSTORE PUSH1 0x20 PUSH1 0x0 KECCAK256 SWAP1 PUSH1 0x4 MUL ADD PUSH1 0x1 ADD PUSH1 0x0 SWAP1 SLOAD SWAP1 PUSH2 0x100 EXP SWAP1 DIV PUSH20 0xFFFFFFFFFFFFFFFFFFFFFFFFFFFFFFFFFFFFFFFF AND PUSH20 0xFFFFFFFFFFFFFFFFFFFFFFFFFFFFFFFFFFFFFFFF AND PUSH2 0x8FC PUSH1 0x5 CALLVALUE DUP2 ISZERO ISZERO PUSH2 0x888 JUMPI INVALID JUMPDEST DIV SWAP1 DUP2 ISZERO MUL SWAP1 PUSH1 0x40 MLOAD PUSH1 0x0 PUSH1 0x40 MLOAD DUP1 DUP4 SUB DUP2 DUP6 DUP9 DUP9 CALL SWAP4 POP POP POP POP ISZERO DUP1 ISZERO PUSH2 0x8B4 JUMPI RETURNDATASIZE PUSH1 0x0 DUP1 RETURNDATACOPY RETURNDATASIZE PUSH1 0x0 REVERT JUMPDEST POP PUSH1 0x4 PUSH1 0x0 SWAP1 SLOAD SWAP1 PUSH2 0x100 EXP SWAP1 DIV PUSH20 0xFFFFFFFFFFFFFFFFFFFFFFFFFFFFFFFFFFFFFFFF AND PUSH20 0xFFFFFFFFFFFFFFFFFFFFFFFFFFFFFFFFFFFFFFFF AND PUSH2 0x8FC PUSH1 0x5 PUSH1 0x4 CALLVALUE MUL DUP2 ISZERO ISZERO PUSH2 0x900 JUMPI INVALID JUMPDEST DIV SWAP1 DUP2 ISZERO MUL SWAP1 PUSH1 0x40 MLOAD PUSH1 0x0 PUSH1 0x40 MLOAD DUP1 DUP4 SUB DUP2 DUP6 DUP9 DUP9 CALL SWAP4 POP POP POP POP ISZERO DUP1 ISZERO PUSH2 0x92C JUMPI RETURNDATASIZE PUSH1 0x0 DUP1 RETURNDATACOPY RETURNDATASIZE PUSH1 0x0 REVERT JUMPDEST POP POP JUMPDEST DUP1 DUP1 PUSH1 0x1 ADD SWAP2 POP POP PUSH2 0x50D JUMP JUMPDEST POP POP JUMP JUMPDEST PUSH1 0x60 PUSH1 0x0 DUP1 SLOAD DUP1 PUSH1 0x20 MUL PUSH1 0x20 ADD PUSH1 0x40 MLOAD SWAP1 DUP2 ADD PUSH1 0x40 MSTORE DUP1 SWAP3 SWAP2 SWAP1 DUP2 DUP2 MSTORE PUSH1 0x20 ADD PUSH1 0x0 SWAP1 JUMPDEST DUP3 DUP3 LT ISZERO PUSH2 0xAA3 JUMPI DUP4 DUP3 SWAP1 PUSH1 0x0 MSTORE PUSH1 0x20 PUSH1 0x0 KECCAK256 SWAP1 PUSH1 0x4 MUL ADD PUSH1 0x80 PUSH1 0x40 MLOAD SWAP1 DUP2 ADD PUSH1 0x40 MSTORE SWAP1 DUP2 PUSH1 0x0 DUP3 ADD SLOAD DUP2 MSTORE PUSH1 0x20 ADD PUSH1 0x1 DUP3 ADD PUSH1 0x0 SWAP1 SLOAD SWAP1 PUSH2 0x100 EXP SWAP1 DIV PUSH20 0xFFFFFFFFFFFFFFFFFFFFFFFFFFFFFFFFFFFFFFFF AND PUSH20 0xFFFFFFFFFFFFFFFFFFFFFFFFFFFFFFFFFFFFFFFF AND PUSH20 0xFFFFFFFFFFFFFFFFFFFFFFFFFFFFFFFFFFFFFFFF AND DUP2 MSTORE PUSH1 0x20 ADD PUSH1 0x2 DUP3 ADD DUP1 SLOAD PUSH1 0x1 DUP2 PUSH1 0x1 AND ISZERO PUSH2 0x100 MUL SUB AND PUSH1 0x2 SWAP1 DIV DUP1 PUSH1 0x1F ADD PUSH1 0x20 DUP1 SWAP2 DIV MUL PUSH1 0x20 ADD PUSH1 0x40 MLOAD SWAP1 DUP2 ADD PUSH1 0x40 MSTORE DUP1 SWAP3 SWAP2 SWAP1 DUP2 DUP2 MSTORE PUSH1 0x20 ADD DUP3 DUP1 SLOAD PUSH1 0x1 DUP2 PUSH1 0x1 AND ISZERO PUSH2 0x100 MUL SUB AND PUSH1 0x2 SWAP1 DIV DUP1 ISZERO PUSH2 0xA81 JUMPI DUP1 PUSH1 0x1F LT PUSH2 0xA56 JUMPI PUSH2 0x100 DUP1 DUP4 SLOAD DIV MUL DUP4 MSTORE SWAP2 PUSH1 0x20 ADD SWAP2 PUSH2 0xA81 JUMP JUMPDEST DUP3 ADD SWAP2 SWAP1 PUSH1 0x0 MSTORE PUSH1 0x20 PUSH1 0x0 KECCAK256 SWAP1 JUMPDEST DUP2 SLOAD DUP2 MSTORE SWAP1 PUSH1 0x1 ADD SWAP1 PUSH1 0x20 ADD DUP1 DUP4 GT PUSH2 0xA64 JUMPI DUP3 SWAP1 SUB PUSH1 0x1F AND DUP3 ADD SWAP2 JUMPDEST POP POP POP POP POP DUP2 MSTORE PUSH1 0x20 ADD PUSH1 0x3 DUP3 ADD SLOAD DUP2 MSTORE POP POP DUP2 MSTORE PUSH1 0x20 ADD SWAP1 PUSH1 0x1 ADD SWAP1 PUSH2 0x964 JUMP JUMPDEST POP POP POP POP SWAP1 POP SWAP1 JUMP JUMPDEST PUSH1 0x2 SLOAD DUP2 JUMP JUMPDEST PUSH1 0x4 PUSH1 0x0 SWAP1 SLOAD SWAP1 PUSH2 0x100 EXP SWAP1 DIV PUSH20 0xFFFFFFFFFFFFFFFFFFFFFFFFFFFFFFFFFFFFFFFF AND PUSH20 0xFFFFFFFFFFFFFFFFFFFFFFFFFFFFFFFFFFFFFFFF AND CALLER PUSH20 0xFFFFFFFFFFFFFFFFFFFFFFFFFFFFFFFFFFFFFFFF AND EQ ISZERO ISZERO PUSH2 0xB0E JUMPI PUSH1 0x0 DUP1 REVERT JUMPDEST PUSH1 0x0 DUP1 SWAP1 POP JUMPDEST PUSH1 0x1 DUP1 SLOAD SWAP1 POP DUP2 LT ISZERO PUSH2 0xC94 JUMPI DUP2 PUSH1 0x1 DUP3 DUP2 SLOAD DUP2 LT ISZERO ISZERO PUSH2 0xB31 JUMPI INVALID JUMPDEST SWAP1 PUSH1 0x0 MSTORE PUSH1 0x20 PUSH1 0x0 KECCAK256 SWAP1 PUSH1 0x7 MUL ADD PUSH1 0x0 ADD SLOAD EQ ISZERO PUSH2 0xC87 JUMPI PUSH1 0x1 DUP2 DUP2 SLOAD DUP2 LT ISZERO ISZERO PUSH2 0xB58 JUMPI INVALID JUMPDEST SWAP1 PUSH1 0x0 MSTORE PUSH1 0x20 PUSH1 0x0 KECCAK256 SWAP1 PUSH1 0x7 MUL ADD PUSH1 0x6 ADD PUSH1 0x0 SWAP1 SLOAD SWAP1 PUSH2 0x100 EXP SWAP1 DIV PUSH1 0xFF AND ISZERO ISZERO ISZERO PUSH2 0xB83 JUMPI PUSH1 0x0 DUP1 REVERT JUMPDEST PUSH1 0x5 PUSH1 0x4 PUSH1 0x1 DUP4 DUP2 SLOAD DUP2 LT ISZERO ISZERO PUSH2 0xB96 JUMPI INVALID JUMPDEST SWAP1 PUSH1 0x0 MSTORE PUSH1 0x20 PUSH1 0x0 KECCAK256 SWAP1 PUSH1 0x7 MUL ADD PUSH1 0x2 ADD PUSH1 0x3 ADD SLOAD MUL DUP2 ISZERO ISZERO PUSH2 0xBB5 JUMPI INVALID JUMPDEST DIV CALLVALUE GT ISZERO ISZERO ISZERO PUSH2 0xBC4 JUMPI PUSH1 0x0 DUP1 REVERT JUMPDEST PUSH1 0x1 DUP2 DUP2 SLOAD DUP2 LT ISZERO ISZERO PUSH2 0xBD3 JUMPI INVALID JUMPDEST SWAP1 PUSH1 0x0 MSTORE PUSH1 0x20 PUSH1 0x0 KECCAK256 SWAP1 PUSH1 0x7 MUL ADD PUSH1 0x2 ADD PUSH1 0x1 ADD PUSH1 0x0 SWAP1 SLOAD SWAP1 PUSH2 0x100 EXP SWAP1 DIV PUSH20 0xFFFFFFFFFFFFFFFFFFFFFFFFFFFFFFFFFFFFFFFF AND PUSH20 0xFFFFFFFFFFFFFFFFFFFFFFFFFFFFFFFFFFFFFFFF AND PUSH2 0x8FC CALLVALUE SWAP1 DUP2 ISZERO MUL SWAP1 PUSH1 0x40 MLOAD PUSH1 0x0 PUSH1 0x40 MLOAD DUP1 DUP4 SUB DUP2 DUP6 DUP9 DUP9 CALL SWAP4 POP POP POP POP ISZERO DUP1 ISZERO PUSH2 0xC4D JUMPI RETURNDATASIZE PUSH1 0x0 DUP1 RETURNDATACOPY RETURNDATASIZE PUSH1 0x0 REVERT JUMPDEST POP PUSH1 0x1 DUP1 DUP3 DUP2 SLOAD DUP2 LT ISZERO ISZERO PUSH2 0xC5E JUMPI INVALID JUMPDEST SWAP1 PUSH1 0x0 MSTORE PUSH1 0x20 PUSH1 0x0 KECCAK256 SWAP1 PUSH1 0x7 MUL ADD PUSH1 0x6 ADD PUSH1 0x0 PUSH2 0x100 EXP DUP2 SLOAD DUP2 PUSH1 0xFF MUL NOT AND SWAP1 DUP4 ISZERO ISZERO MUL OR SWAP1 SSTORE POP JUMPDEST DUP1 DUP1 PUSH1 0x1 ADD SWAP2 POP POP PUSH2 0xB14 JUMP JUMPDEST POP POP JUMP JUMPDEST PUSH1 0x60 PUSH1 0x1 DUP1 SLOAD DUP1 PUSH1 0x20 MUL PUSH1 0x20 ADD PUSH1 0x40 MLOAD SWAP1 DUP2 ADD PUSH1 0x40 MSTORE DUP1 SWAP3 SWAP2 SWAP1 DUP2 DUP2 MSTORE PUSH1 0x20 ADD PUSH1 0x0 SWAP1 JUMPDEST DUP3 DUP3 LT ISZERO PUSH2 0xE8B JUMPI DUP4 DUP3 SWAP1 PUSH1 0x0 MSTORE PUSH1 0x20 PUSH1 0x0 KECCAK256 SWAP1 PUSH1 0x7 MUL ADD PUSH1 0x80 PUSH1 0x40 MLOAD SWAP1 DUP2 ADD PUSH1 0x40 MSTORE SWAP1 DUP2 PUSH1 0x0 DUP3 ADD SLOAD DUP2 MSTORE PUSH1 0x20 ADD PUSH1 0x1 DUP3 ADD PUSH1 0x0 SWAP1 SLOAD SWAP1 PUSH2 0x100 EXP SWAP1 DIV PUSH20 0xFFFFFFFFFFFFFFFFFFFFFFFFFFFFFFFFFFFFFFFF AND PUSH20 0xFFFFFFFFFFFFFFFFFFFFFFFFFFFFFFFFFFFFFFFF AND PUSH20 0xFFFFFFFFFFFFFFFFFFFFFFFFFFFFFFFFFFFFFFFF AND DUP2 MSTORE PUSH1 0x20 ADD PUSH1 0x2 DUP3 ADD PUSH1 0x80 PUSH1 0x40 MLOAD SWAP1 DUP2 ADD PUSH1 0x40 MSTORE SWAP1 DUP2 PUSH1 0x0 DUP3 ADD SLOAD DUP2 MSTORE PUSH1 0x20 ADD PUSH1 0x1 DUP3 ADD PUSH1 0x0 SWAP1 SLOAD SWAP1 PUSH2 0x100 EXP SWAP1 DIV PUSH20 0xFFFFFFFFFFFFFFFFFFFFFFFFFFFFFFFFFFFFFFFF AND PUSH20 0xFFFFFFFFFFFFFFFFFFFFFFFFFFFFFFFFFFFFFFFF AND PUSH20 0xFFFFFFFFFFFFFFFFFFFFFFFFFFFFFFFFFFFFFFFF AND DUP2 MSTORE PUSH1 0x20 ADD PUSH1 0x2 DUP3 ADD DUP1 SLOAD PUSH1 0x1 DUP2 PUSH1 0x1 AND ISZERO PUSH2 0x100 MUL SUB AND PUSH1 0x2 SWAP1 DIV DUP1 PUSH1 0x1F ADD PUSH1 0x20 DUP1 SWAP2 DIV MUL PUSH1 0x20 ADD PUSH1 0x40 MLOAD SWAP1 DUP2 ADD PUSH1 0x40 MSTORE DUP1 SWAP3 SWAP2 SWAP1 DUP2 DUP2 MSTORE PUSH1 0x20 ADD DUP3 DUP1 SLOAD PUSH1 0x1 DUP2 PUSH1 0x1 AND ISZERO PUSH2 0x100 MUL SUB AND PUSH1 0x2 SWAP1 DIV DUP1 ISZERO PUSH2 0xE4A JUMPI DUP1 PUSH1 0x1F LT PUSH2 0xE1F JUMPI PUSH2 0x100 DUP1 DUP4 SLOAD DIV MUL DUP4 MSTORE SWAP2 PUSH1 0x20 ADD SWAP2 PUSH2 0xE4A JUMP JUMPDEST DUP3 ADD SWAP2 SWAP1 PUSH1 0x0 MSTORE PUSH1 0x20 PUSH1 0x0 KECCAK256 SWAP1 JUMPDEST DUP2 SLOAD DUP2 MSTORE SWAP1 PUSH1 0x1 ADD SWAP1 PUSH1 0x20 ADD DUP1 DUP4 GT PUSH2 0xE2D JUMPI DUP3 SWAP1 SUB PUSH1 0x1F AND DUP3 ADD SWAP2 JUMPDEST POP POP POP POP POP DUP2 MSTORE PUSH1 0x20 ADD PUSH1 0x3 DUP3 ADD SLOAD DUP2 MSTORE POP POP DUP2 MSTORE PUSH1 0x20 ADD PUSH1 0x6 DUP3 ADD PUSH1 0x0 SWAP1 SLOAD SWAP1 PUSH2 0x100 EXP SWAP1 DIV PUSH1 0xFF AND ISZERO ISZERO ISZERO ISZERO DUP2 MSTORE POP POP DUP2 MSTORE PUSH1 0x20 ADD SWAP1 PUSH1 0x1 ADD SWAP1 PUSH2 0xCBC JUMP JUMPDEST POP POP POP POP SWAP1 POP SWAP1 JUMP JUMPDEST PUSH2 0xE9C PUSH2 0x105F JUMP JUMPDEST PUSH1 0x80 PUSH1 0x40 MLOAD SWAP1 DUP2 ADD PUSH1 0x40 MSTORE DUP1 PUSH1 0x2 SLOAD DUP2 MSTORE PUSH1 0x20 ADD CALLER PUSH20 0xFFFFFFFFFFFFFFFFFFFFFFFFFFFFFFFFFFFFFFFF AND DUP2 MSTORE PUSH1 0x20 ADD DUP5 DUP2 MSTORE PUSH1 0x20 ADD DUP4 DUP2 MSTORE POP SWAP1 POP PUSH1 0x2 PUSH1 0x0 DUP2 SLOAD DUP1 SWAP3 SWAP2 SWAP1 PUSH1 0x1 ADD SWAP2 SWAP1 POP SSTORE POP PUSH1 0x0 DUP2 SWAP1 DUP1 PUSH1 0x1 DUP2 SLOAD ADD DUP1 DUP3 SSTORE DUP1 SWAP2 POP POP SWAP1 PUSH1 0x1 DUP3 SUB SWAP1 PUSH1 0x0 MSTORE PUSH1 0x20 PUSH1 0x0 KECCAK256 SWAP1 PUSH1 0x4 MUL ADD PUSH1 0x0 SWAP1 SWAP2 SWAP3 SWAP1 SWAP2 SWAP1 SWAP2 POP PUSH1 0x0 DUP3 ADD MLOAD DUP2 PUSH1 0x0 ADD SSTORE PUSH1 0x20 DUP3 ADD MLOAD DUP2 PUSH1 0x1 ADD PUSH1 0x0 PUSH2 0x100 EXP DUP2 SLOAD DUP2 PUSH20 0xFFFFFFFFFFFFFFFFFFFFFFFFFFFFFFFFFFFFFFFF MUL NOT AND SWAP1 DUP4 PUSH20 0xFFFFFFFFFFFFFFFFFFFFFFFFFFFFFFFFFFFFFFFF AND MUL OR SWAP1 SSTORE POP PUSH1 0x40 DUP3 ADD MLOAD DUP2 PUSH1 0x2 ADD SWAP1 DUP1 MLOAD SWAP1 PUSH1 0x20 ADD SWAP1 PUSH2 0xF85 SWAP3 SWAP2 SWAP1 PUSH2 0xFDF JUMP JUMPDEST POP PUSH1 0x60 DUP3 ADD MLOAD DUP2 PUSH1 0x3 ADD SSTORE POP POP POP POP POP POP JUMP JUMPDEST PUSH1 0xE0 PUSH1 0x40 MLOAD SWAP1 DUP2 ADD PUSH1 0x40 MSTORE DUP1 PUSH1 0x0 DUP2 MSTORE PUSH1 0x20 ADD PUSH1 0x0 PUSH20 0xFFFFFFFFFFFFFFFFFFFFFFFFFFFFFFFFFFFFFFFF AND DUP2 MSTORE PUSH1 0x20 ADD PUSH2 0xFD0 PUSH2 0x109E JUMP JUMPDEST DUP2 MSTORE PUSH1 0x20 ADD PUSH1 0x0 ISZERO ISZERO DUP2 MSTORE POP SWAP1 JUMP JUMPDEST DUP3 DUP1 SLOAD PUSH1 0x1 DUP2 PUSH1 0x1 AND ISZERO PUSH2 0x100 MUL SUB AND PUSH1 0x2 SWAP1 DIV SWAP1 PUSH1 0x0 MSTORE PUSH1 0x20 PUSH1 0x0 KECCAK256 SWAP1 PUSH1 0x1F ADD PUSH1 0x20 SWAP1 DIV DUP2 ADD SWAP3 DUP3 PUSH1 0x1F LT PUSH2 0x1020 JUMPI DUP1 MLOAD PUSH1 0xFF NOT AND DUP4 DUP1 ADD OR DUP6 SSTORE PUSH2 0x104E JUMP JUMPDEST DUP3 DUP1 ADD PUSH1 0x1 ADD DUP6 SSTORE DUP3 ISZERO PUSH2 0x104E JUMPI SWAP2 DUP3 ADD JUMPDEST DUP3 DUP2 GT ISZERO PUSH2 0x104D JUMPI DUP3 MLOAD DUP3 SSTORE SWAP2 PUSH1 0x20 ADD SWAP2 SWAP1 PUSH1 0x1 ADD SWAP1 PUSH2 0x1032 JUMP JUMPDEST JUMPDEST POP SWAP1 POP PUSH2 0x105B SWAP2 SWAP1 PUSH2 0x10DD JUMP JUMPDEST POP SWAP1 JUMP JUMPDEST PUSH1 0x80 PUSH1 0x40 MLOAD SWAP1 DUP2 ADD PUSH1 0x40 MSTORE DUP1 PUSH1 0x0 DUP2 MSTORE PUSH1 0x20 ADD PUSH1 0x0 PUSH20 0xFFFFFFFFFFFFFFFFFFFFFFFFFFFFFFFFFFFFFFFF AND DUP2 MSTORE PUSH1 0x20 ADD PUSH1 0x60 DUP2 MSTORE PUSH1 0x20 ADD PUSH1 0x0 DUP2 MSTORE POP SWAP1 JUMP JUMPDEST PUSH1 0x80 PUSH1 0x40 MLOAD SWAP1 DUP2 ADD PUSH1 0x40 MSTORE DUP1 PUSH1 0x0 DUP2 MSTORE PUSH1 0x20 ADD PUSH1 0x0 PUSH20 0xFFFFFFFFFFFFFFFFFFFFFFFFFFFFFFFFFFFFFFFF AND DUP2 MSTORE PUSH1 0x20 ADD PUSH1 0x60 DUP2 MSTORE PUSH1 0x20 ADD PUSH1 0x0 DUP2 MSTORE POP SWAP1 JUMP JUMPDEST PUSH2 0x10FF SWAP2 SWAP1 JUMPDEST DUP1 DUP3 GT ISZERO PUSH2 0x10FB JUMPI PUSH1 0x0 DUP2 PUSH1 0x0 SWAP1 SSTORE POP PUSH1 0x1 ADD PUSH2 0x10E3 JUMP JUMPDEST POP SWAP1 JUMP JUMPDEST SWAP1 JUMP JUMPDEST PUSH1 0x0 DUP3 PUSH1 0x1F DUP4 ADD SLT ISZERO ISZERO PUSH2 0x1115 JUMPI PUSH1 0x0 DUP1 REVERT JUMPDEST DUP2 CALLDATALOAD PUSH2 0x1128 PUSH2 0x1123 DUP3 PUSH2 0x152D JUMP JUMPDEST PUSH2 0x1500 JUMP JUMPDEST SWAP2 POP DUP1 DUP3 MSTORE PUSH1 0x20 DUP4 ADD PUSH1 0x20 DUP4 ADD DUP6 DUP4 DUP4 ADD GT ISZERO PUSH2 0x1144 JUMPI PUSH1 0x0 DUP1 REVERT JUMPDEST PUSH2 0x114F DUP4 DUP3 DUP5 PUSH2 0x1600 JUMP JUMPDEST POP POP POP SWAP3 SWAP2 POP POP JUMP JUMPDEST PUSH1 0x0 PUSH2 0x1164 DUP3 CALLDATALOAD PUSH2 0x15F6 JUMP JUMPDEST SWAP1 POP SWAP3 SWAP2 POP POP JUMP JUMPDEST PUSH1 0x0 DUP1 PUSH1 0x40 DUP4 DUP6 SUB SLT ISZERO PUSH2 0x117F JUMPI PUSH1 0x0 DUP1 REVERT JUMPDEST PUSH1 0x0 DUP4 ADD CALLDATALOAD PUSH8 0xFFFFFFFFFFFFFFFF DUP2 GT ISZERO PUSH2 0x1199 JUMPI PUSH1 0x0 DUP1 REVERT JUMPDEST PUSH2 0x11A5 DUP6 DUP3 DUP7 ADD PUSH2 0x1102 JUMP JUMPDEST SWAP3 POP POP PUSH1 0x20 PUSH2 0x11B6 DUP6 DUP3 DUP7 ADD PUSH2 0x1158 JUMP JUMPDEST SWAP2 POP POP SWAP3 POP SWAP3 SWAP1 POP JUMP JUMPDEST PUSH1 0x0 PUSH1 0x20 DUP3 DUP5 SUB SLT ISZERO PUSH2 0x11D2 JUMPI PUSH1 0x0 DUP1 REVERT JUMPDEST PUSH1 0x0 PUSH2 0x11E0 DUP5 DUP3 DUP6 ADD PUSH2 0x1158 JUMP JUMPDEST SWAP2 POP POP SWAP3 SWAP2 POP POP JUMP JUMPDEST PUSH2 0x11F2 DUP2 PUSH2 0x15AE JUMP JUMPDEST DUP3 MSTORE POP POP JUMP JUMPDEST PUSH1 0x0 PUSH2 0x1203 DUP3 PUSH2 0x1573 JUMP JUMPDEST DUP1 DUP5 MSTORE PUSH1 0x20 DUP5 ADD SWAP4 POP DUP4 PUSH1 0x20 DUP3 MUL DUP6 ADD PUSH2 0x121C DUP6 PUSH2 0x1559 JUMP JUMPDEST PUSH1 0x0 JUMPDEST DUP5 DUP2 LT ISZERO PUSH2 0x1255 JUMPI DUP4 DUP4 SUB DUP9 MSTORE PUSH2 0x1237 DUP4 DUP4 MLOAD PUSH2 0x1319 JUMP JUMPDEST SWAP3 POP PUSH2 0x1242 DUP3 PUSH2 0x1594 JUMP JUMPDEST SWAP2 POP PUSH1 0x20 DUP9 ADD SWAP8 POP PUSH1 0x1 DUP2 ADD SWAP1 POP PUSH2 0x121F JUMP JUMPDEST POP DUP2 SWAP7 POP DUP7 SWAP5 POP POP POP POP POP SWAP3 SWAP2 POP POP JUMP JUMPDEST PUSH1 0x0 PUSH2 0x1271 DUP3 PUSH2 0x157E JUMP JUMPDEST DUP1 DUP5 MSTORE PUSH1 0x20 DUP5 ADD SWAP4 POP DUP4 PUSH1 0x20 DUP3 MUL DUP6 ADD PUSH2 0x128A DUP6 PUSH2 0x1566 JUMP JUMPDEST PUSH1 0x0 JUMPDEST DUP5 DUP2 LT ISZERO PUSH2 0x12C3 JUMPI DUP4 DUP4 SUB DUP9 MSTORE PUSH2 0x12A5 DUP4 DUP4 MLOAD PUSH2 0x137C JUMP JUMPDEST SWAP3 POP PUSH2 0x12B0 DUP3 PUSH2 0x15A1 JUMP JUMPDEST SWAP2 POP PUSH1 0x20 DUP9 ADD SWAP8 POP PUSH1 0x1 DUP2 ADD SWAP1 POP PUSH2 0x128D JUMP JUMPDEST POP DUP2 SWAP7 POP DUP7 SWAP5 POP POP POP POP POP SWAP3 SWAP2 POP POP JUMP JUMPDEST PUSH2 0x12DD DUP2 PUSH2 0x15C0 JUMP JUMPDEST DUP3 MSTORE POP POP JUMP JUMPDEST PUSH1 0x0 PUSH2 0x12EE DUP3 PUSH2 0x1589 JUMP JUMPDEST DUP1 DUP5 MSTORE PUSH2 0x1302 DUP2 PUSH1 0x20 DUP7 ADD PUSH1 0x20 DUP7 ADD PUSH2 0x160F JUMP JUMPDEST PUSH2 0x130B DUP2 PUSH2 0x1642 JUMP JUMPDEST PUSH1 0x20 DUP6 ADD ADD SWAP2 POP POP SWAP3 SWAP2 POP POP JUMP JUMPDEST PUSH1 0x0 PUSH1 0x80 DUP4 ADD PUSH1 0x0 DUP4 ADD MLOAD PUSH2 0x1331 PUSH1 0x0 DUP7 ADD DUP3 PUSH2 0x13DF JUMP JUMPDEST POP PUSH1 0x20 DUP4 ADD MLOAD PUSH2 0x1344 PUSH1 0x20 DUP7 ADD DUP3 PUSH2 0x11E9 JUMP JUMPDEST POP PUSH1 0x40 DUP4 ADD MLOAD DUP5 DUP3 SUB PUSH1 0x40 DUP7 ADD MSTORE PUSH2 0x135C DUP3 DUP3 PUSH2 0x12E3 JUMP JUMPDEST SWAP2 POP POP PUSH1 0x60 DUP4 ADD MLOAD PUSH2 0x1371 PUSH1 0x60 DUP7 ADD DUP3 PUSH2 0x13DF JUMP JUMPDEST POP DUP1 SWAP2 POP POP SWAP3 SWAP2 POP POP JUMP JUMPDEST PUSH1 0x0 PUSH1 0x80 DUP4 ADD PUSH1 0x0 DUP4 ADD MLOAD PUSH2 0x1394 PUSH1 0x0 DUP7 ADD DUP3 PUSH2 0x13DF JUMP JUMPDEST POP PUSH1 0x20 DUP4 ADD MLOAD PUSH2 0x13A7 PUSH1 0x20 DUP7 ADD DUP3 PUSH2 0x11E9 JUMP JUMPDEST POP PUSH1 0x40 DUP4 ADD MLOAD DUP5 DUP3 SUB PUSH1 0x40 DUP7 ADD MSTORE PUSH2 0x13BF DUP3 DUP3 PUSH2 0x1319 JUMP JUMPDEST SWAP2 POP POP PUSH1 0x60 DUP4 ADD MLOAD PUSH2 0x13D4 PUSH1 0x60 DUP7 ADD DUP3 PUSH2 0x12D4 JUMP JUMPDEST POP DUP1 SWAP2 POP POP SWAP3 SWAP2 POP POP JUMP JUMPDEST PUSH2 0x13E8 DUP2 PUSH2 0x15EC JUMP JUMPDEST DUP3 MSTORE POP POP JUMP JUMPDEST PUSH1 0x0 PUSH1 0x20 DUP3 ADD SWAP1 POP PUSH2 0x1403 PUSH1 0x0 DUP4 ADD DUP5 PUSH2 0x11E9 JUMP JUMPDEST SWAP3 SWAP2 POP POP JUMP JUMPDEST PUSH1 0x0 PUSH1 0x20 DUP3 ADD SWAP1 POP DUP2 DUP2 SUB PUSH1 0x0 DUP4 ADD MSTORE PUSH2 0x1423 DUP2 DUP5 PUSH2 0x11F8 JUMP JUMPDEST SWAP1 POP SWAP3 SWAP2 POP POP JUMP JUMPDEST PUSH1 0x0 PUSH1 0x20 DUP3 ADD SWAP1 POP DUP2 DUP2 SUB PUSH1 0x0 DUP4 ADD MSTORE PUSH2 0x1445 DUP2 DUP5 PUSH2 0x1266 JUMP JUMPDEST SWAP1 POP SWAP3 SWAP2 POP POP JUMP JUMPDEST PUSH1 0x0 PUSH1 0x20 DUP3 ADD SWAP1 POP PUSH2 0x1462 PUSH1 0x0 DUP4 ADD DUP5 PUSH2 0x13DF JUMP JUMPDEST SWAP3 SWAP2 POP POP JUMP JUMPDEST PUSH1 0x0 PUSH1 0x80 DUP3 ADD SWAP1 POP PUSH2 0x147D PUSH1 0x0 DUP4 ADD DUP8 PUSH2 0x13DF JUMP JUMPDEST PUSH2 0x148A PUSH1 0x20 DUP4 ADD DUP7 PUSH2 0x11E9 JUMP JUMPDEST DUP2 DUP2 SUB PUSH1 0x40 DUP4 ADD MSTORE PUSH2 0x149C DUP2 DUP6 PUSH2 0x12E3 JUMP JUMPDEST SWAP1 POP PUSH2 0x14AB PUSH1 0x60 DUP4 ADD DUP5 PUSH2 0x13DF JUMP JUMPDEST SWAP6 SWAP5 POP POP POP POP POP JUMP JUMPDEST PUSH1 0x0 PUSH1 0x80 DUP3 ADD SWAP1 POP PUSH2 0x14C9 PUSH1 0x0 DUP4 ADD DUP8 PUSH2 0x13DF JUMP JUMPDEST PUSH2 0x14D6 PUSH1 0x20 DUP4 ADD DUP7 PUSH2 0x11E9 JUMP JUMPDEST DUP2 DUP2 SUB PUSH1 0x40 DUP4 ADD MSTORE PUSH2 0x14E8 DUP2 DUP6 PUSH2 0x1319 JUMP JUMPDEST SWAP1 POP PUSH2 0x14F7 PUSH1 0x60 DUP4 ADD DUP5 PUSH2 0x12D4 JUMP JUMPDEST SWAP6 SWAP5 POP POP POP POP POP JUMP JUMPDEST PUSH1 0x0 PUSH1 0x40 MLOAD SWAP1 POP DUP2 DUP2 ADD DUP2 DUP2 LT PUSH8 0xFFFFFFFFFFFFFFFF DUP3 GT OR ISZERO PUSH2 0x1523 JUMPI PUSH1 0x0 DUP1 REVERT JUMPDEST DUP1 PUSH1 0x40 MSTORE POP SWAP2 SWAP1 POP JUMP JUMPDEST PUSH1 0x0 PUSH8 0xFFFFFFFFFFFFFFFF DUP3 GT ISZERO PUSH2 0x1544 JUMPI PUSH1 0x0 DUP1 REVERT JUMPDEST PUSH1 0x1F NOT PUSH1 0x1F DUP4 ADD AND SWAP1 POP PUSH1 0x20 DUP2 ADD SWAP1 POP SWAP2 SWAP1 POP JUMP JUMPDEST PUSH1 0x0 PUSH1 0x20 DUP3 ADD SWAP1 POP SWAP2 SWAP1 POP JUMP JUMPDEST PUSH1 0x0 PUSH1 0x20 DUP3 ADD SWAP1 POP SWAP2 SWAP1 POP JUMP JUMPDEST PUSH1 0x0 DUP2 MLOAD SWAP1 POP SWAP2 SWAP1 POP JUMP JUMPDEST PUSH1 0x0 DUP2 MLOAD SWAP1 POP SWAP2 SWAP1 POP JUMP JUMPDEST PUSH1 0x0 DUP2 MLOAD SWAP1 POP SWAP2 SWAP1 POP JUMP JUMPDEST PUSH1 0x0 PUSH1 0x20 DUP3 ADD SWAP1 POP SWAP2 SWAP1 POP JUMP JUMPDEST PUSH1 0x0 PUSH1 0x20 DUP3 ADD SWAP1 POP SWAP2 SWAP1 POP JUMP JUMPDEST PUSH1 0x0 PUSH2 0x15B9 DUP3 PUSH2 0x15CC JUMP JUMPDEST SWAP1 POP SWAP2 SWAP1 POP JUMP JUMPDEST PUSH1 0x0 DUP2 ISZERO ISZERO SWAP1 POP SWAP2 SWAP1 POP JUMP JUMPDEST PUSH1 0x0 PUSH20 0xFFFFFFFFFFFFFFFFFFFFFFFFFFFFFFFFFFFFFFFF DUP3 AND SWAP1 POP SWAP2 SWAP1 POP JUMP JUMPDEST PUSH1 0x0 DUP2 SWAP1 POP SWAP2 SWAP1 POP JUMP JUMPDEST PUSH1 0x0 DUP2 SWAP1 POP SWAP2 SWAP1 POP JUMP JUMPDEST DUP3 DUP2 DUP4 CALLDATACOPY PUSH1 0x0 DUP4 DUP4 ADD MSTORE POP POP POP JUMP JUMPDEST PUSH1 0x0 JUMPDEST DUP4 DUP2 LT ISZERO PUSH2 0x162D JUMPI DUP1 DUP3 ADD MLOAD DUP2 DUP5 ADD MSTORE PUSH1 0x20 DUP2 ADD SWAP1 POP PUSH2 0x1612 JUMP JUMPDEST DUP4 DUP2 GT ISZERO PUSH2 0x163C JUMPI PUSH1 0x0 DUP5 DUP5 ADD MSTORE JUMPDEST POP POP POP POP JUMP JUMPDEST PUSH1 0x0 PUSH1 0x1F NOT PUSH1 0x1F DUP4 ADD AND SWAP1 POP SWAP2 SWAP1 POP JUMP INVALID LOG2 PUSH6 0x627A7A723058 KECCAK256 PUSH26 0xE4F21D76F2B26840724939F5884EF2C66CDAE09A1663E372394B PUSH22 0x4190781E6C6578706572696D656E74616CF500370000 "},"gasEstimates":{"creation":{"codeDepositCost":"1154600","executionCost":"21442","totalCost":"1176042"},"external":{"buyProduct(uint256)":"infinite","createProduct(string,uint256)":"infinite","getProducts()":"infinite","getTrades()":"infinite","manager()":"647","productId()":"650","products(uint256)":"infinite","tradeId()":"518","trades(uint256)":"infinite","verifyTrade(uint256)":"infinite"}},"methodIdentifiers":{"buyProduct(uint256)":"8642269e","createProduct(string,uint256)":"e9300c6c","getProducts()":"c29b2f20","getTrades()":"e43372e9","manager()":"481c6a75","productId()":"c5ce3911","products(uint256)":"7acc0b20","tradeId()":"02c5115b","trades(uint256)":"1e6c598e","verifyTrade(uint256)":"d781d7c8"}},"userdoc":{"methods":{}}}